:020000040800F2
:10000000C0CC012069030008816C0008455F00082E
:10001000A16800089B1E0008F17F00080000000096
:10002000000000000000000000000000A90200081D
:100030000D2F000800000000050300086D77000880
:100040008303000883030008830300088303000878
:100050008303000883030008830300088303000868
:100060008303000883030008830300088303000858
:100070008303000883030008830300088303000848
:100080008303000883030008830300088303000838
:100090008303000883030008830300088303000828
:1000A0008303000883030008830300088303000818
:1000B0008303000883030008830300088303000808
:1000C00083030008830300088303000883030008F8
:1000D000830300088303000883030008E57F00080A
:1000E00083030008830300088303000883030008D8
:1000F00083030008830300088303000883030008C8
:1001000083030008830300088303000883030008B7
:1001100083030008557C0008317800088303000839
:10012000CD2D000883030008830300088303000823
:100130008303000883030008830300088303000887
:100140008303000883030008830300088303000877
:100150008303000883030008830300088303000867
:100160008303000883030008830300088303000857
:1001700083030008830300088303000800000000D5
:10018000830300088303000800F002F800F07DF804
:100190000AA090E8000C82448344AAF10107DA45E2
:1001A00001D100F072F8AFF2090EBAE80F0013F0B7
:1001B000010F18BFFB1A43F00103184798C803004A
:1001C000D8C803000A444FF0000C10F8013B13F0AC
:1001D000070408BF10F8014B1D1108BF10F8015BA0
:1001E000641E05D010F8016B641E01F8016BF9D193
:1001F00013F0080F1EBF10F8014BAD1C0C1B09D1EA
:100200006D1E58BF01F801CBFAD505E014F8016B5B
:1002100001F8016B6D1EF9D59142D6D370470000ED
:10022000103A24BF78C878C1FAD8520724BF30C822
:1002300030C144BF04680C607047000000230024F4
:1002400000250026103A28BF78C1FBD8520728BFE6
:1002500030C148BF0B607047662926F05F81642972
:1002600000F05E81732900F09E86002070471FB564
:1002700026F04FF900F09CFE04000020002126F03B
:10028000BBF8E0601FBD10B510BD00F095FF114632
:10029000FFF7EDFF20F00EFC00F0B3FF03B4FFF713
:1002A000F2FF03BC00F0B8FF2C4B19680868B0E8F7
:1002B000F04F80F30988BFF36F8F4FF0000080F399
:1002C000118870470000000008480068006880F34B
:1002D00008884FF0000080F3148862B661B6BFF35F
:1002E0004F8FBFF36F8F00DF00BF00BF08ED00E04E
:1002F000DFF80C00016841F470010160704700BF35
:1003000088ED00E0EFF30980BFF36F8F134B1A689D
:100310001EF0100F08BF20ED108A20E9F04F10608A
:1003200009B44FF0500080F31188BFF34F8FBFF333
:100330006F8F24F0E7FD4FF0000080F3118809BCB7
:1003400019680868B0E8F04F1EF0100F08BFB0EC55
:10035000108A80F30988BFF36F8F704718C001209F
:10036000EFF30580704700000948804709480047BF
:10037000FEE7FEE7FEE7FEE7FEE7FEE7FEE7FEE755
:10038000FEE7FEE704480549054A064B70470000B2
:100390002178000889010008C0C60120C0CC0120D6
:1003A000C0C80120C0C8012053EA020C00F06980D7
:1003B0002DE9F04B4FF00006002B1FBFB3FA83F579
:1003C00003FA05F424FA05F65E4012BF1643B2FAAA
:1003D00082F502FA05F4C5F120051EBF22FA05FCDC
:1003E00044EA0C04203556EA044C4FEA144418BF82
:1003F000641C4FF000084FF00009904271EB030CB1
:1004000039D3002919BFB1FA81F701FA07F6B0FA1A
:1004100080F700FA07F6C7F120071EBF20FA07FC95
:1004200046EA0C062037B6FBF4FCA7EB0507103FA5
:1004300007F01F0BCBF120060CFA0BFB2CFA06F68B
:1004400044BFB3460026202FA4BF5E464FF0000BEA
:100450005BEA060C08BF4FF0010B19EB0B09ABFB75
:10046000027C48EB0608C01B06FB02CC0BFB03CC4E
:1004700071EB0C01C1E70B46024641464846BDE818
:10048000F08B13B54FF000004FF00001AFF3008088
:10049000BDE81C40704700000FB41CB50C0007AA53
:1004A000009001D02044401E074B7B4469460190D8
:1004B000069800F046FD002C03D06946002000F0AD
:1004C00053FD1CBC5DF814FBC50A000070B50C465A
:1004D0000546012A05D02878800600D5EA69002360
:1004E00002E0012305E05B1C934202D2E05C00289D
:1004F000F9D1A869E618C01AA861286A18442862C8
:100500002846AFF3008004E0D5E9012114F8010B7F
:100510009047B442F8D32846AFF3008070BD000086
:100520002DE9F0410646002410687529314616A5CC
:1005300010D0AFF30080002802DA404213A507E094
:1005400031688A0701D512A502E0490704D511A533
:10055000012401E0AFF3008000210A2206F1240704
:1005600009E0B0FBF2FCB0FBF2F302FB1C00303000
:1005700078541846491C0028F3D123462A463046B1
:10058000BDE8F04100F070BA000000002D0000004E
:100590002B000000200000002DE9F0474FF0000A7A
:1005A00089460446C0F820A02046E1688847002814
:1005B00076D0252806D0D4E901219047206A401C36
:1005C0002062F1E7E168204600258847C4F81CA0B6
:1005D00006460027C4F818A02A2E09D0304608F095
:1005E000EDF838B304EB8708303EC8F8186019E01E
:1005F00059F8041B204604EB87029161E1688847A3
:10060000012F064618D1E069002820DA25F02005E0
:100610001DE0D8F8180000EB800006EB40003038F1
:10062000C8F818002046E1688847064608F0C6F872
:100630000028EED1012F0AD02E2E08D12046E168E5
:1006400088477F1C0646022F45F02005C4DBA069C1
:10065000002803DA404245F00105A061E80701D017
:1006600025F01005B6B1A6F14100192802D82036B0
:1006700045F400654A463146204625604D46FFF761
:10068000EBFD58B1012806D0ED1D25F0070000F163
:10069000080989E704E005F1040985E730468AE79F
:1006A000206ABDE8F08730B505460B462A4613F8A8
:1006B000014B12F8010B08B1A042F8D01CB1002880
:1006C00002D06D1CF1E7284630BD40EA0103024626
:1006D00030B59B0710D14FF0013400E008C208C9C3
:1006E0001D1B9D4315EAC41FF8D013F0FF0102F84B
:1006F000011B0DD01B0AF8E711F8013B002B02F893
:10070000013B05D011F8013B002B02F8013BF3D16E
:1007100030BD10B5431C02E010F8011B71B1810718
:10072000FAD14FF0013202C88C1A8C4314EAC2117C
:10073000F9D0C01A0A0603D0C01E10BDC01A10BDE1
:100740000A0401D0801E10BD0902FCD0401E10BD5D
:1007500040EA010370B59B072ED14FF00136042A01
:100760002AD308C810C99D1B9D43121F15EAC61540
:1007700017D0D8B2E1B2401A50EA056110D198B250
:10078000A1B2401A50EA05410AD123F07F4024F07B
:100790007F41401A50EA052102D1180EA0EB1460E7
:1007A00070BDA342DBD018BA21BA884201D901201A
:1007B00070BD4FF0FF3070BD0AB9002070BD10F859
:1007C000013B11F8014B63B1A3420AD1521E08D07C
:1007D00010F8013B11F8014B1BB1A34201D1521E8D
:1007E000EDD1181B70BD032A40F2308010F0030CCD
:1007F00000F0158011F8013BBCF1020F624498BF74
:1008000011F801CB00F8013B38BF11F8013BA2F110
:10081000040298BF00F801CB38BF00F8013B11F08B
:10082000030300F02580083AC0F0088051F8043B2B
:10083000083A51F804CBA0E80810F5E7121D5CBF98
:1008400051F8043B40F8043BAFF30080D20724BFCB
:1008500011F8013B11F801CB48BF11F8012B24BF5F
:1008600000F8013B00F801CB48BF00F8012B7047AE
:1008700010B5203AC0F00B80B1E81850203AA0E83B
:100880001850B1E81850A0E81850BFF4F5AF5FEA6F
:10089000027C24BFB1E81850A0E8185044BF18C922
:1008A00018C0BDE810405FEA827C24BF51F8043BC9
:1008B00040F8043B08BF7047D20728BF31F8023B1D
:1008C00048BF11F8012B28BF20F8023B48BF00F8B1
:1008D000012B704702F0FF0343EA032242EA02427F
:1008E00000F002B84FF000020429C0F0128010F0AE
:1008F000030C00F01B80CCF1040CBCF1020F18BFFC
:1009000000F8012BA8BF20F8022BA1EB0C0100F08E
:100910000DB85FEAC17C24BF00F8012B00F8012B61
:1009200048BF00F8012B70474FF0000200B5134696
:1009300094469646203922BFA0E80C50A0E80C50FF
:10094000B1F12001BFF4F7AF090728BFA0E80C50B0
:1009500048BF0CC05DF804EB890028BF40F8042BA9
:1009600008BF704748BF20F8022B11F0804F18BF16
:1009700000F8012B704710B5044610F0030F08BFB4
:1009800011F0030F40F015804FF0013E121FC0F22E
:100990000E8051F8043BA3EB0E0C2CEA030C1CEA6E
:1009A000CE1C08BF40F8043BF0D0A1F1040102F1D5
:1009B0000402521E08DB11F8013B002B00F8013B3A
:1009C000F7D11146FFF78EFF204610BD4FF0013CD6
:1009D00050F8042B51F8043B9A4221D1A2EB0C03AE
:1009E000934313EACC1317D150F8042B51F8043B6E
:1009F0009A4215D1A2EB0C03934313EACC130BD10B
:100A000050F8042B51F8043B9A4209D1A2EB0C0395
:100A1000934313EACC13DBD04FF00000704700BFC4
:100A2000D01A01BAB1FA81F101F0180122FA01F0ED
:100A3000CB40C1F12001DBB2C0B2C01A2CFA01F3E5
:100A4000D11A914311EAC311E6D17047704770473C
:100A5000704710B500F0B0FA006810BD10B504463C
:100A600000F0AAFA046010BD2DE9F0470D46994642
:100A70009246044600F124080168880604D5E0691E
:100A800021F01001216000E00120A84201DD471B98
:100A900000E00027A1697A1902EB0900081AA06199
:100AA0002078C00602D42046AFF30080002608E07C
:100AB000D4E901211AF806009047206A401C761CF0
:100AC00020624E45F4DB2078C0060AD52046AFF3FD
:100AD000008006E0D4E9012130209047206A401CC4
:100AE0002062381EA7F10107F4DC07E0D4E90121F8
:100AF00018F805009047206A401C2062281EA5F1C6
:100B00000105F3DC2046AFF300802078000602D513
:100B10000220BDE8F0870120FBE770472DE9FF4F79
:100B20000C461E464FF0FF378BB0D2E90001DDF8CE
:100B300060800A908A46C1F30A5505B93D460021F6
:100B400008464FF00000BAF1000F00F4400005DA4B
:100B500000EB80004FF4400101EA50004FEA905949
:100B6000B9F1010F00DDB9460A9850EA4A000ED0EB
:100B700044F61050A5F2FF3545432F14B8F1000F8D
:100B80001ED07542291E1EDDC9F100021CE0B8F11D
:100B9000010F4FF0000001D0302103E0F24305E0E7
:100BA0002154401CB042FBDB30460022002121547E
:100BB0000B99C1F80880C1E900200FB0BDE8F08FA3
:100BC000BD1B6D1CDEE74A4600DA694206A800F04C
:100BD0007DFA06AB93E8070003AB83E807005046B5
:100BE0000A9900F01FFB8DE80700A0F500501F38A0
:100BF00000900398002D0ADD42F21F014A46084486
:100C0000002303A90390684600F088FD09E0A0F5E1
:100C100000504A461F38002303A90390684600F09D
:100C200092FD8DE807000004000C03D04FF0FF3068
:100C3000410800E01046B8F1000F03D000220092F6
:100C400015461EE0751E05D400F0BAF93032625523
:100C50006D1EF9D5B3460122084302D000227F1C45
:100C600004E02078302801D100227F1E002A099755
:100C700084D01DE0112D07DA00F0A2F93032625560
:100C80006D1C50EA0102F5D1084302D00098C8B1AA
:100C90000EE00021681E05E0235C625C6354225470
:100CA000401E491C8142F7DBAB46A81B401E099041
:100CB000002004F80B000B98099AC0F80880C0E9DE
:100CC000002B7AE711264FF0000857E72DE9F04F87
:100CD00088460446D21D22F0070191B0D1E90001F7
:100CE000CDE90A0107F002FA02460B98C00F01D0C5
:100CF0002D2007E02068810701D52B2002E020216C
:100D000001EAC000032A099001D0072A05DB034647
:100D10004146204600F09AF90BE12078800601D583
:100D2000E06900E00620B8F1650F814606D0B8F111
:100D3000660F18D0B8F1670F70D131E00020B9F11B
:100D4000110F009001DB112301E009F101030AAA50
:100D500001A90CA8FFF7E2FEDDE90C70002609F1FD
:100D60000105834647E001204B4600904FF00047C5
:100D70000AAA01A90CA8FFF7D1FEDDE90DB00C9974
:100D80005D46002610B909F101000D18B9EB050008
:100D900003D4C0F1FF3609F10105A5EB09002BE0F2
:100DA000B9F1010F01DA4FF001090020B9F1110F7B
:100DB0000090484601DD112300E003460AAA01A97C
:100DC0000CA8FFF7ABFEDDE90C704D46002683460C
:100DD000207800070AD4AB4500DA5D4601A8012D52
:100DE00004DD411911F8011C302907D04F4502DA02
:100DF00017F1040F04DA012082460FE06D1EEEE7C2
:100E0000002F02DCED1B3E4403E0781CA84200DD0D
:100E10007D1CB81B00F1010A4FF000472078000745
:100E200003D4AA4501DB4FF0FF3A0021B7F1004F90
:100E30000DF143088DF8431024D002202B23002FFE
:100E400001DA7F422D230A21021EA0F1010000DCFD
:100E50005FB197FBF1FC97FBF1F201FB1C7C17469D
:100E60000CF1300C08F801CDEEE7A8F10100037099
:100E70002188090501D5452100E06521A0F101087F
:100E800000F8011C09980FA9A1EB0807FF1D00B18C
:100E90000120411901EBEA70A1693844081A401E8B
:100EA000A0612078C00602D42046AFF300800998E4
:100EB00028B1D4E901219047206A401C20622078A3
:100EC000C00622D52046AFF300801EE0002E04DBD2
:100ED000B34502DD01A8805D00E03020D4E90121A6
:100EE0009047206A401C2062761CAAF101005FEA4C
:100EF000000A0AD100F05CF8C0680168405CD4E9DF
:100F000001219047206A401C2062281EA5F101059E
:100F1000DCDC07E0D4E9012118F8010B9047206AD6
:100F2000401C2062381EA7F10107F3DC2046AFF316
:100F30000080032011B041E601694A1C0261087873
:100F4000704700B58FB0CDE9013100210591054909
:100F50007944CDE9031011466846FFF71DFB0FB039
:100F600000BD0000E5FFFFFF0A6802F8010B0A6000
:100F70007047D1E900239A4202D2531C0B601070D3
:100F8000704710B5436913B1AFF3008001E0FFF77C
:100F90009DFA012010BD127800F124010A70002290
:100FA0004A700122EDE711684FF0FF32E9E70000D7
:100FB0000048704780C601200048704760C6012085
:100FC00030B5B0F10A024FEA900E71F100034EEA1B
:100FD000817EB0EB0E0061EB91014FEA101E4EEAEC
:100FE000017E10EB0E0041EB11114FEA102E4EEA7C
:100FF000016E10EB0E0041EB11214FEA104E4EEA4C
:10100000014E10EB0E0041EB1141401841F100017F
:101010004FEAD00040EA41704FEAD10110EB800561
:101020004FEA810444EA907444EB01046D1944EBE7
:101030000404521BA3414FF0000348BF0A3200D5FD
:1010400030BD401C41F1000130BD00002DE9F041F0
:101050001F46044603260168072A01F4006004DBEA
:1010600008B116A505E016A503E008B115A500E036
:1010700015A521F010002060A069C01EA0610FB16D
:10108000401EA0612046AFF300804FB1D4E901219A
:1010900038469047206A401C2062C01C206206E04F
:1010A000206AFAE7D4E9012115F8010B9047761E72
:1010B000F8D22046AFF30080BDE8F0814E414E00EB
:1010C0006E616E00494E4600696E66002DE9F0477C
:1010D000814616468AB0354878440DC88DE80D0023
:1010E00032487844801C03AC0DC884E80D0041F6FA
:1010F0009B300844372190FBF1F290FBF1F5A5F10C
:10110000800501FB12041B3C02D56442012000E073
:101110000020DFF898A080460027FA44AAF1BE0A12
:101120000EE0E0070AD03246684607EB470101238C
:101130000AEB810100F007FB8DE8070064107F1CBB
:10114000002CEED1194F7F44AE3F19E0E80715D0CF
:1011500007EB04100DF1180A90E80E008AE80E0063
:10116000C068F04201D1981908903246012306A9BF
:1011700003A800F0E8FA03AB83E807006D10641CD5
:10118000002DE3D14FF0010332466946B8F1000F5C
:1011900003A802D000F0C2FA01E000F0D4FAC9E9D5
:1011A0000001C9F808200AB0BDE8F08720B80300A4
:1011B0000048704760C601207546FFF7F9FFAE464C
:1011C00005006946534620F00700854618B020B553
:1011D000FFF7D8F8BDE820404FF000064FF00007B9
:1011E0004FF000084FF0000B21F00701AC46ACE8CF
:1011F000C009ACE8C009ACE8C009ACE8C0098D463C
:10120000704710B50446AFF300802046BDE810409B
:10121000FFF744B87047000001491820ABBEFEE755
:10122000260002005FEA400C08BF91F0000F4FEA71
:101230008C234FEAC12243EA51514FEA1C5018BF98
:1012400000F5F0404FEA300018BF41F000415FEA7E
:101250006C5C00F02980BCF1FF3F08BF40F080408B
:101260007047130C06BF12044FF0100C4FF0000C27
:10127000130E04BF12020CF1080C130F04BF12016D
:101280000CF1040C930F04BF92000CF1020CD30F6D
:1012900004BF52000CF1010C11464FF00002A0F106
:1012A0001F00A0EB0C00704711F0004F08BF704703
:1012B00031F000413FF4D5AF0B0C06BF09044FF0ED
:1012C000100C4FF0000C0B0E04BF09020CF1080CBF
:1012D0000B0F04BF09010CF1040C8B0F04BF890034
:1012E0000CF1020CCB0F04BF49000CF1010CCCF146
:1012F0002003A0EB0C0022FA03F302FA0CF241EAFD
:10130000030100F10100704720F07F4C80EA0300E8
:1013100023F07F47ACEB070303F57C5300F000405C
:1013200003F1FF032DE980494FEA154B09B44FEA59
:10133000144325EA0B4E24EA03480FF2042606EB79
:10134000132749083E785FEA320203FB0667C7F5B8
:10135000000707FB06F64FEA54374FEAD64606F178
:10136000020607FB066CCCF1005C4FEA1C472CEA36
:10137000074C07FB06F40CFB06F504EB15464FEA99
:10138000961634BF00204FF000404FEAD13706FBDD
:1013900007FC4FEA1C4C0CFB0BF7D21B03FB0CF7B2
:1013A00061EB07010CFB0EF7B0EB074072EB174245
:1013B0000CFB08F734BFA2EB0742B2EB074261EB2C
:1013C00017414FEA0C444FEA910706FB07FC4FEA2E
:1013D0001C4C0CFB0BF7B0EBC74072EB573203FB16
:1013E0000CF734BFA2EBC742B2EBC74261EB5731F7
:1013F0000CFB0EF7B0EBC70072EB57720CFB08F753
:1014000034BFA2EBC702B2EBC70261EB5771039F77
:101410004FEA816141EA921104EBCC044FEAD137E3
:101420004FEA826206FB07FC42EA90124FEA8060B4
:101430004FEA1C4C0CFB0BF7D21B03FB0CF761EBC8
:1014400007010CFB0EF7B0EB074072EB17420CFBE9
:1014500008F734BFA2EB0742B2EB074261EB17413A
:101460004FEA8C554FEA910704EB9C2406FB07FCDE
:101470004FEA1C4C0CFB0BF7B0EBC74072EB57323A
:1014800003FB0CF734BFA2EBC742B2EBC74261EBE0
:1014900057310CFB0EF7B0EBC70072EB57720CFB29
:1014A00008F734BFA2EBC702B2EBC70261EB57717A
:1014B00015EB4C254FEA816141EA92114FEA8262B5
:1014C0004FEAD13742EA901206FB07FC44F10004D0
:1014D0004FEA80604FEA1C4C0CFB0BF7D21B03FB5E
:1014E0000CF761EB07010CFB0EF7B0EB074072EB5A
:1014F00017420CFB08F734BFA2EB0742B2EB0742DE
:1015000061EB174115EB1C154FEA813141EA92411D
:101510004FEA823242EA90424FEA80304FEA0C763C
:1015200044F1000448EA03434EEA0B484FF0000E32
:10153000B2EB080C71EB030724BF624639464EEB51
:101540000E0E4FF0000B0018524149414BEB0B0BB4
:10155000B2EB080C71EB03077BF1000B24BF624672
:1015600039464EEB0E0E4FF0000B00185241494128
:101570004BEB0B0BB2EB080C71EB03077BF1000B91
:1015800024BF624639464EEB0E0E51EA020718BFE1
:1015900046F0010616EB0E7655F1000254F10001FB
:1015A00003D5BDE88901BDE80088BDE88901BDE833
:1015B0000048B619524141EB0101A3F10103704704
:1015C00080807F7E7D7C7B7A797877767675747380
:1015D000727171706F6E6E6D6C6C6B6A6A6968683F
:1015E000676666656464636362616160605F5F5ED5
:1015F0005E5D5D5C5C5B5B5A5A595958585757564B
:1016000056555555545453535252525151505050AF
:101610004F4F4F4E4E4D4D4D4C4C4C4B4B4B4A4A01
:101620004A49494948484847474747464646454545
:10163000454444444443434343424242424141417E
:10164000002B9C4630D477002BD01CB54FEA3707CF
:1016500003B44FF010004FF01001BAF1000F06D0A4
:10166000BCF1000FDCBF40F0080040F008014FF073
:1016700000000FBCBDE810400BF1010BBBF1010FE6
:1016800008BF5FEA170722BF12F1010211F1010141
:101690004FF0004143F1000300F0004043EA000036
:1016A0007047F9D35708D0E746EA064613F1400FD2
:1016B0004FEA16461FDD13F1200FDFBF16430A461F
:1016C000002120335B42BED0C3F1200746EA064624
:1016D00002FA07F74FEA164646EA0706C3F1200763
:1016E00022FA03F201FA07F721FA03F14FF000039F
:1016F00042EA0702A7E746EA020646EA06464FEA3A
:10170000164646EA0106BCBF46EA0646360C4FF0CE
:1017100000034FF000024FF0000194E72DE9804CE8
:101720009A46934670B491E8380007C831EA400CF5
:1017300048BF34EA430C03D5FFF7E6FDFFF780FF0F
:10174000F0BCBDE8008C2DE9804C9A46934670B4FD
:1017500091E8380007C810F0804F08BF13F0804FA1
:1017600003D100F005F8FFF76BFFF0BCBDE8008C7B
:1017700020F07F4780EA030023F07F4C07EB0C0347
:10178000A3F57C5300F00040A3F1FE0392F0000F9C
:1017900000F0B38095F0000F00F077802DE901494B
:1017A0004FEA11404FEA144621EA004800FB06FCCC
:1017B00024EA064708FB06F607FB08F800FB07F7D4
:1017C00018EB06484CEB164C4FEA124B18EB074847
:1017D0004FEA15464CEB174022EA0B4E0BFB06FC7A
:1017E00025EA06470EFB06F607FB0EFE0BFB07F786
:1017F0001EEB064E4CEB164C4FF000061EEB074E50
:101800004CEB174B18EB0B0840F1000018EB0E0BDC
:1018100058EB000840F100008F1A4FF000013CBF68
:10182000C943661B14BFB5EB040C00213CBFC94380
:10183000F61B4FEA17444EEA8E0E27EA04454FEA9C
:101840001C4704FB07622CEA074C05FB07F70CFB5F
:1018500005F604FB0CFC16EB074642EB174216EBB1
:101860000C4642EB1C421BEB060658EB02024141C0
:1018700046EA9E0601D5BDE80189B619524141EB01
:101880000101A3F10103BDE801894FEA14454FEAC4
:10189000114724EA054621EA074C05FB07F406FB3D
:1018A00007F70CFB06F105FB0CFC11EB074144EBC1
:1018B00017444FEA124711EB0C4144EB1C4422EA57
:1018C000074C05FB07F206FB07F70CFB06F605FBCA
:1018D0000CFC16EB074642EB174216EB0C4642EBAC
:1018E0001C456A1854F1000148BF7047B6195241AF
:1018F00041EB0101A3F10103704795F0000F37D0D0
:101900004FEA11424FEA144721EA024624EA074C03
:1019100002FB07F106FB07F70CFB06F402FB0CFCCD
:1019200014EB074441EB17414FEA154714EB0C4405
:1019300041EB1C4125EA074C02FB07F506FB07F7C4
:101940000CFB06F602FB0CFC16EB074645EB1745B5
:1019500016EB0C4645EB1C42121951F1000148BF31
:101960007047B619524141EB0101A3F101037047E1
:101970004FEA14454FEA114724EA054621EA074C8D
:1019800005FB07F106FB07F70CFB06F24FF000061C
:1019900005FB0CFC12EB074241EB174112EB0C422A
:1019A00051EB1C4148BF7047921841EB0101A3F174
:1019B00001037047F0EE040A9FED0F1A70EE600A03
:1019C0000E4B0F490F4A80EE810AF0EEC00A10EE6E
:1019D000900A984202DA9FED0C0A704710EE100A46
:1019E000904202DDB1EE040A704710EE100A884200
:1019F000FAD9B9EE040A7047A4703D3E0AD7A33C59
:101A00000000A0C00000A0400000000010B501468A
:101A1000806B026C12F0500F05D0026CD20626D5F6
:101A200002F05EF810BD016C41F4007101640168C0
:101A30008A6812F0405F17D1027EAAB9CA6A12F40E
:101A4000700F02D08A6852050ED44A6822F0200234
:101A50004A60016C21F480710164016CC90403D4F3
:101A6000016C41F00101016402F01EF810BD806BB1
:101A7000C26CBDE810400846104710B5806B40218D
:101A80000164416C41F00401416402F029F810BD89
:101A900010B5806B02F01CF810BD000030B50E4B85
:101AA000002003F1380400224FEA0201C1EBC10516
:101AB000054403EB4505AD8B491CC9B22A440229F4
:101AC000F4D3510824F81010401CC0B20728EAD300
:101AD00002490120487030BD7086002054C00120AA
:101AE00030B50E4B002003F1380400224FEA02010A
:101AF000C1EBC105054433F81550491CC9B22A444D
:101B00000229F5D3510824F81010401CC0B2072850
:101B1000EBD303490120087030BD0000708600201F
:101B200054C0012010B538210448FEF7DBFEBDE8A3
:101B300010401C220149024802F04CB87086002077
:101B400014C1012000EE100ADFED0B0A10B5B8EE4B
:101B5000400A20EE200ADFED090A20EE200AFFF7F6
:101B600029FF07489FED071AD0ED030A00F08CF912
:101B700080ED030A10BD000033335340000080396C
:101B800054860020CDCC4C3E00EE100ADFED1A0A40
:101B90001D4AB8EE400A10B51A4920EE200ADFEDC2
:101BA000170A907820EE200ADFED150A01EB80037A
:101BB000401C30EE600A00F0030083ED000A9070D4
:101BC0009FED120A5FF0000001EB8002401CD2ED95
:101BD000000AC0B2042800EEA00AF5D3F5EE000A10
:101BE00020EE200A06F0E6FC06485438D0ED0E0A36
:101BF00020EE800A10BD00003333534000008039CE
:101C00003333D33F0C87002054C001200000000074
:101C100000EE100ADFED100A1148B8EE400A00B5D8
:101C20009FED101A20EE200ADFED0C0A20EE200AAC
:101C3000D0ED060A30EE600AD0ED070A20EE200A49
:101C4000D0ED080A643820EE800AD0ED020A00F0D8
:101C50001BF980ED020A00BD333353400000803988
:101C6000B8860020CDCC4C3E10B505F00BF80548E9
:101C70009FED051AD0ED050A00F006F980ED050A82
:101C800010BD000054860020CDCC4C3E00EE100A62
:101C9000DFED0B0A10B5B8EE400A20EE200ADFEDAA
:101CA000090A20EE200AFFF785FE07489FED071A74
:101CB000D0ED010A00F0E8F880ED010A10BD000047
:101CC000333353400000803954860020CDCC4C3E45
:101CD00000EE100ADFED100A1148B8EE400A00B518
:101CE0009FED101A20EE200ADFED0C0A20EE200AEC
:101CF000D0ED000A30EE600AD0ED010A20EE200A95
:101D0000D0ED020A643820EE800AD0ED000A00F01F
:101D1000BBF880ED000A00BD33335340000080392A
:101D2000B8860020CDCC4C3E072801D30020704758
:101D3000014931F810007047A886002010B504F062
:101D4000A1FF05489FED051AD0ED060A00F09CF8AA
:101D500080ED060A10BD000054860020CDCC4C3E1C
:101D6000464910B54A6822F440324A604A684368DE
:101D70001A434A6001684A6822F480724A60016826
:101D80004A68036942EA03224A6001684A6822F00D
:101D900040724A6001684A6883681A434A60016871
:101DA0008A6822F400628A6001688A68C3681A43FC
:101DB0008A60816A6FF07062D14201688A6822F09D
:101DC00070628A6001688A680CD0836A1A438A60EC
:101DD00001688A6822F040528A6001688A68C36A92
:101DE0001A4301E022F040528A6001688A6822F0BA
:101DF00002028A6001688A68037E42EA43028A60BE
:101E000090F82010002901684A680FD042F400625F
:101E10004A6001684A6822F460424A6001684A6880
:101E2000174C436A04EB43331A4301E022F4006287
:101E30004A600168CA6A22F47002CA620168CA6A0A
:101E4000838B104C04EB03531A43CA6201688A68FF
:101E500022F400728A6001688A6890F8303042EAA1
:101E600043228A6001688A6822F480628A6001687D
:101E70008A68406942EA8020886010BD00230140E2
:101E800000E0FFFF0000F0FFF7EE001A21EE000A6D
:101E900031EEC11A01EE200A7047FEE730B5034665
:101EA0004FF6FF700022074C08E09D5C4540EDB204
:101EB000521C34F8155092B285EA10208A42F4D3AD
:101EC00030BD0000806A02082DED0A8B002500203D
:101ED000FFF72AFF83460120FFF726FF82460220F4
:101EE000FFF722FF81460320FFF71EFF80460420F4
:101EF000FFF71AFF07460520FFF716FF06460620E4
:101F0000FFF712FF04465846FFF7E2FEF0EE409A54
:101F10005046FFF7BBFEF0EE408A4846FFF778FEDA
:101F2000B0EE40BA4046FFF70DFEB0EE408A3846AC
:101F3000FFF72AFEB0EE409A3046FFF795FEF0EE2E
:101F400040AA2046FFF7FAFE0A24B5FBF4F069EE3A
:101F5000A8BA29EE08CA04FB1050B0EE40AAC0B9D6
:101F600005F004FAF0EE40CAF0EE680AB0EE690A35
:101F700004F0B4F804F0F6F800EE100AB8EE400AE7
:101F800020EE2C0ABCEEC00A10EE100AC0B204F01B
:101F90005DF9B5FBF4F004FB105078B905F0E6F9F3
:101FA000DFED2B0A20EE200ABCEEC00A10EE100A6C
:101FB000C0B20A2800D20A2005F028FBB0EE490A78
:101FC00004F03EFFF0EE4A1AB0EE6A1AF0EE480A4C
:101FD000B0EE690A05F06AF808B105F06BF904F093
:101FE00001FF08B11BA700E01BA71D4E4FF0FF31FA
:101FF000B06A1FF067F91B4CC4ED019AC4ED028A68
:10200000C4ED03BA84ED04BA84ED059A84ED068A22
:1020100084ED07CA04F08AFE84ED080AC4ED0AAA1A
:1020200084ED0BAA04F09EF800EE100AB8EE400A08
:1020300084ED100A04F09CF884ED110A3868A0645D
:10204000B06A1FF0C9F90A206D1C1FF048F83EE77E
:102050000000A04252554E0053544F500000000063
:1020600048000020D8C4012070B519F099FE734CC7
:10207000E622F021E0601CF0A8FD28220021E068A3
:102080001CF084FD6E4813F023FD01460022E06839
:102090001CF083FE00220A21E0681CF0CBFE012127
:1020A000E0681CF039FD002302221946E0681CF0AC
:1020B00017FD00220821E0681CF0DDFE0121E06828
:1020C00019F0ECF9E06817F0F9FF05465DA118F08A
:1020D00073FC604813F0FCFC0146002228461CF00B
:1020E00006FF00225C4928461CF00DFFDC21284633
:1020F0001CF01DFF0022012128461CF0F3FE57A210
:1021000057A1E06800F04AF942F2D171E0631CF097
:1021100013FDE06B17F0D2FF054656A118F04CFCFA
:1021200000224D4928461CF0EEFEE06B17F0C6FF7A
:10213000054655A118F040FC0022474928461CF0EE
:10214000E2FEE06B17F0BAFF054654A118F034FC2C
:102150000022414928461CF0D6FE55A256A1E0684F
:1021600000F01CF9206417F0A9FF054656A118F0ED
:1021700023FC0022384928461CF0C5FE57A258A16E
:10218000E06800F00BF9606417F098FF054659A16C
:1021900018F012FC0022304928461CF0B4FE606C96
:1021A00017F08CFF054658A118F006FC00222A49BA
:1021B00028461CF0A8FE606C17F080FF054657A16A
:1021C00018F0FAFB0022244928461CF09CFE606CA3
:1021D00017F074FF054656A118F0EEFB00221E49C9
:1021E00028461CF090FE57A258A1E06800F0D6F8EF
:1021F000A06417F063FF054658A118F0DDFB00222C
:10220000154928461CF07FFEA06C17F057FF0546C5
:1022100058A118F0D1FB00220F4928461CF073FE8C
:10222000A06C17F04BFF044658A118F0C5FB2046E0
:10223000BDE87040002208491CF065BEE0000020A7
:10224000F5F5F50020204D515454E5B7B2E8BF9E96
:10225000E68EA50050AF4C00D0C10208E298800085
:10226000E58589E4BC8FE8BE93E585A5E6A8A1E5F0
:102270009D970000E8BE93E585A5E794B5E58E8BB4
:102280003A202D2D20560000E8BE93E585A5E79461
:10229000B5E6B5813A202D2D20410000E8BE93E53A
:1022A00085A5E58A9FE78E873A202D2D20570000CF
:1022B000F09F948B00000000E6AF8DE7BABFE6A860
:1022C000A1E59D9700000000E6AF8DE7BABFE79457
:1022D000B5E58E8B3A202D2D20560000E29AA10004
:1022E000E4BAA4E6B581E8BE93E587BAE6A8A1E51D
:1022F0009D970000E8BE93E587BAE794B5E58E8B1D
:102300003A202D2D20560000E8BE93E587BAE794C9
:10231000B5E6B5813A202D2D20410000E8BE93E5B9
:1023200087BAE58A9FE78E873A202D2D2057000037
:10233000E794B5E7BD91E9A291E78E873A202D2D6C
:1023400020487A00F09F8CA100000000E6B8A9E5C3
:10235000BAA6E4B88EE78AB6E6808100E5898DE703
:10236000BAA7E6B8A9E5BAA63A202D2D20C2B043F7
:1023700000000000E5908EE7BAA7E6B8A9E5BAA686
:102380003A202D2D20C2B043000000004D50505483
:10239000E78AB6E680813A202D2D00002DE9F04134
:1023A00090460F4619F0FCFC0446DC211CF0BFFDF2
:1023B0006FF07F4013F08CFB0146002220461CF09A
:1023C000ECFC0022082120461CF076FD00220A21A8
:1023D00020461CF02FFD1021204619F051FC20460C
:1023E00019F0DEFC05461E22C8211CF0EEFB00227F
:1023F000114628461CF0DDFC0022114628461CF040
:10240000E9FC0022114628461CF014FD1021284644
:1024100019F036FC284617F051FE06463B46424668
:102420002AA118F000FB00222A4930461CF06BFD5F
:10243000294813F04DFB0146002230461CF057FDA1
:1024400000231A460721304619F0D2F8284617F023
:1024500035FE064621A118F0AFFA214813F038FBEB
:102460000146002230461CF042FD00231A46082196
:10247000304619F0BDF8204619F092FC04460022BF
:10248000C8211CF0A2FB0022114620461CF091FC42
:102490000022114620461CF09DFC002211462046D9
:1024A0001CF0C8FC0022114620461CF0B9FC10218B
:1024B000204619F0E5FB002307220A4928462C6133
:1024C00018F0A0FF2046BDE8F0810000257320250C
:1024D0007300000014F7020833333300EF81B800B3
:1024E000757575005538000870B519F059FC04462B
:1024F0002822F0211CF069FB0022114620461CF026
:1025000045FB244D284613F0E3FA014600222046FD
:102510001CF043FC0022114620461CF0CDFC00229A
:10252000114620461CF086FC0022114620461CF075
:1025300051FC204617F0C2FD064617A118F03CFAE0
:1025400013F01DFC0146002230461CF0D0FC002296
:10255000154930461CF0D7FC304619F0D5FA204614
:1025600018F0B4FA114C08221146A0631CF02DFBA0
:102570001022D221A06B1CF009FB284613F0A8FA08
:102580000146A06B18F0DFFBA06BBDE8704018F0AF
:10259000C7BB000050AF4C00E58589E4BC8FE79BCA
:1025A00091E68EA7000000002C350308E000002013
:1025B0002DE9F84F19F0F4FBDB4CE622F021A06086
:1025C0001CF003FB28220021A0681CF0DFFAD7488A
:1025D00013F07EFA01460022A0681CF0DEFB002208
:1025E0000A21A0681CF026FC0121A0681CF094FAC6
:1025F000002302221946A0681CF072FA002208216A
:10260000A0681CF038FCA06819F0CAFB81463C2287
:10261000DC211CF0DAFA6FF07F46304613F058FAEE
:102620000146002248461CF0B8FB0022082148461B
:102630001CF042FC00220A2148461CF0FBFB102142
:10264000484619F01DFB484617F038FD0746B8A16B
:1026500018F0B2F9B94D284613F03AFA01460022B3
:1026600038461CF044FC0022B54938461CF04BFCAF
:1026700000231A460121384618F0BAFF484617F0E1
:102680001DFD0746AFA118F097F90022B44938465E
:102690001CF039FCDFF8CC82404613F019FA0146F1
:1026A000002238461CF023FC122300220121384668
:1026B00018F09EFF484617F001FD8146AAA118F0C8
:1026C0007BF90022AE4948461CF01DFCAD4F384650
:1026D00013F0FEF90146002248461CF008FC2423B2
:1026E00000220121484618F083FFA06819F058FB2A
:1026F00082466422DC211CF068FA304613F0E8F9C7
:102700000146002250461CF048FB0022082150469A
:102710001CF0D2FB00220A2150461CF08BFB10213A
:10272000504619F0ADFA504617F0C8FC814696A104
:1027300018F042F90022824948461CF0E4FB384672
:1027400013F0C6F90146002248461CF0D0FB0023D6
:102750001A460221484618F04BFF504617F0AEFCCF
:102760008EA1606118F028F900228D4960691CF083
:10277000CAFB284613F0ACF90146002260691CF040
:10278000B6FB14236FF00E020221606918F030FFCF
:10279000504617F093FC814682A118F00DF90022F3
:1027A0006F4948461CF0AFFB284613F091F90146EB
:1027B000002248461CF09BFB0020009005231522B8
:1027C0004846616918F022FF504617F077FC76A161
:1027D000A06118F0F1F800225949A0691CF093FBA0
:1027E000384613F075F901460022A0691CF07FFB02
:1027F00000231A460521A06918F0FAFEA06819F016
:10280000CFFA07467822DC211CF0DFF900221146BE
:1028100038461CF0CEFA0022114638461CF0DAFA8F
:102820000022114638461CF005FB042138461CF0F6
:1028300073F900231A46052138461CF051F900228D
:10284000082138461CF017FB1021384619F018FAF9
:102850003725442357A258A13846009500F094F933
:10286000E061442358A259A13846009500F08CF944
:10287000206244234FA259A13846009500F084F904
:102880006062442359A25AA13846009500F07CF9B1
:10289000A06244235AA25BA13846009500F074F967
:1028A000E062442356A25BA13846009500F06CF923
:1028B0002063A06819F074FA05462822DC211CF078
:1028C00084F9304613F004F90146002228461CF032
:1028D00064FA0022082128461CF0EEFA00220821A2
:1028E00028461CF0A7FA1021284619F0C9F92846F5
:1028F00017F0E4FB4BA1606318F05EF8002210496A
:10290000606B1CF000FB404613F0E2F80146002229
:10291000606B1CF0ECFA606B01B00023BDE8F04F77
:102920001A46072118F064BEE0000020F5F5F50016
:102930002020E59CA8E7BABF0000000050AF4C0083
:10294000D0C10208E699BAE883BDE58589E4BC8F69
:10295000E5BEAEE98086E58F98E599A80000000005
:1029600014F7020833333300E8AEBEE5A4874944C8
:102970003A2050562D494E562D303031000000007F
:10298000FC94020875757500E5BD93E5898DE58FAA
:1029900091E794B5E58A9FE78E8700002D2D000012
:1029A000D4C60308570000002D2D2520E69588E7A2
:1029B0008E87000056000000E58589E4BC8FE7940F
:1029C000B5E58E8B0000000041000000E58589E43C
:1029D000BC8FE794B5E6B58100000000E4BAA4E638
:1029E000B581E794B5E58E8B00000000487A0000C1
:1029F000E794B5E7BD91E9A291E78E87000000005A
:102A0000C2B04300E5898DE7BAA7E6B8A9E5BAA642
:102A100000000000E5908EE7BAA7E6B8A9E5BAA6DF
:102A200000000000E98086E58F98E599A83A20E546
:102A3000819CE6ADA200000070B519F0B1F9494CD7
:102A40003222F02120611CF0C0F84FF4877200217F
:102A500020691CF09BF86FF07F4013F039F80146B5
:102A6000002220691CF099F90022114620691CF00F
:102A700023FA0022052120691CF0DCF90022012143
:102A800020691CF0A7F9384E304613F021F80146B2
:102A9000002220691CF092F91021206919F0F0F849
:102AA000206912F0C9FC0546282264211CF08DF82B
:102AB0002E4813F00DF80146002228461CF06DF94F
:102AC00000210B46296107222949284618F09AFC63
:102AD00000230A220721284618F08AFD284617F00D
:102AE000EDFA054623A117F067FF13F048F90146F8
:102AF000002228461CF0FBF9284619F005F8206949
:102B000012F09AFC0446282264211CF05EF830463C
:102B100012F0DEFF0146002220461CF03EF90121A2
:102B20002161002307221249204618F06BFC002384
:102B30006FF009020821204618F05AFD204617F0D0
:102B4000BDFA04460DA117F037FF0E4812F0C0FF82
:102B50000146002220461CF0CAF92046BDE870401C
:102B600018F0D2BFE0000020F5F5F50050AF4C00A2
:102B70001D6D0008E9A696E9A1B50000E8AFA6E63C
:102B800083850000333333002DE9F8431D46174693
:102B90008846089C19F004F90646224629461CF08E
:102BA00014F86FF07F4012F093FF01460022304688
:102BB0001CF0F3F80022082130461CF07DF90022B9
:102BC000082130461CF036F900220A2130461CF05C
:102BD00084F94FF0005012F07BFF0146002230468E
:102BE0001CF06FF91021304619F04AF8304617F002
:102BF00065FA044627A117F0DFFE00222649204689
:102C00001CF081F9254812F063FF0146002220469E
:102C10001CF06DF900231A460121204618F0E8FC4B
:102C2000304617F04BFA0546394617F0C5FE00222C
:102C30001B4928461CF067F91A4F384612F048FF26
:102C40000146002228461CF052F900200090022381
:102C500015222146284618F0D9FC304617F02EFAE6
:102C60000546414617F0A8FE00220D4928461CF0F3
:102C70004AF9384612F02CFF0146002228461CF083
:102C800036F900231A460421284618F0B1FC2046E4
:102C9000BDE8F8832D2D000014F70208333333000C
:102CA000D0C102087575750010B5204A0021204872
:102CB0001EF084FC1F4CA06008B900F0C9FD1B4A3F
:102CC000002124321C481EF079FCE06008B900F0B5
:102CD000BFFD164A0021483218481EF06FFC2061E3
:102CE00008B900F0B5FD114A00216C3214481EF0FD
:102CF00065FC606108B900F0ABFD0C4A0021903220
:102D000010481EF05BFCA06108B900F0A1FD074A65
:102D10000021B4320C481EF051FCE061002803D1C0
:102D2000BDE8104000F094BD10BD000088650208A9
:102D3000C91E000848000020F57F00086D740008D7
:102D4000055F0008915F00086D6C000810B5074A28
:102D5000002107481EF032FC06490028486003D1D4
:102D6000BDE8104000F074BD10BD000064650208AD
:102D7000495F00084800002010B5002211460120DC
:102D80001EF088FB104C206208B900F061FD0022A3
:102D9000114601201EF07EFB606208B900F058FD6C
:102DA00000201EF0C0FAA06208B900F051FD002218
:102DB00002210A201EF0F6F9E062002803D1BDE8E6
:102DC000104000F045BD10BD48000020014801F052
:102DD00009B800005CC1012001681823CAB2103A8A
:102DE000B2FBF3F2054B6FF30901032A9B5CC36549
:102DF00000D9091D81650846704700004465020836
:102E000010B5014600208B698A6A4FF0C07453B137
:102E1000B3F5005F15D072B1012A0CD0022A0AD096
:102E2000032A09D104E01AB1012A06D0022A03D1EB
:102E3000C96AC90100D5012010BDC96AA142FAD0F2
:102E400010BD002AF7D0012AF2D0022AF3D0032ABB
:102E5000F3D010BD30B50468256825F480252560C1
:102E6000046863608368402B036803D0996000683E
:102E7000C26030BD9A600068C16030BD10B5A82145
:102E80001648FDF751FD15482C21A830FDF74CFDE3
:102E900012486821D430FDF747FD10480F2210A1D9
:102EA000AC30FDF768FD0D480F220FA1C030FDF7D3
:102EB00062FD0A480F220EA13030FDF75CFD074885
:102EC0000F220EA14830FDF756FD04480F22BDE841
:102ED00010400CA15830FDF74EBD0000D8C40120B1
:102EE0004F4E4C494E45000076312E302E320000B8
:102EF0005343414E4E494E470000000053544F503B
:102F0000000000004F4E5F475249440070470000E8
:102F100010B513F06DF813F0B3F80C4C60600C486A
:102F200012F0D6FD0146002260681BF036FF606893
:102F3000FFF7DAFA6068FFF73BFB6068FFF794F889
:102F40006068FFF779FD0020207010BDE0000020D0
:102F5000F5F5F50010B50F4C2178884219D02146BF
:102F600020708A6858B1012813D10121104618F049
:102F700095FAE068BDE81040012118F081BE0121FA
:102F8000104618F07DFEE068BDE81040012118F001
:102F900085BA10BDE000002030B50446806846497F
:102FA000464D8BB0884201DA45A109E023F040FA92
:102FB000CDE9000143A2202102A8FDF76DFA02A984
:102FC000686917F0F9FC94F8293043B13FA2202139
:102FD00002A8FDF761FA02A9A86917F0EDFC2068C4
:102FE00023F026FACDE9000136A2202102A8FDF740
:102FF00053FA02A9E86917F0DFFC606823F018FAB9
:10300000CDE9000134A2202102A8FDF745FA02A96A
:10301000286A17F0D1FCE06823F00AFACDE9000134
:1030200028A2202102A8FDF737FA02A9686A17F042
:10303000C3FCA06923F0FCF9CDE9000126A2202100
:1030400002A8FDF729FA02A9A86A17F0B5FC206AC0
:1030500023F0EEF9CDE900011AA2202102A8FDF724
:103060001BFA02A9E86A17F0A7FC606A23F0E0F9EE
:10307000CDE9000113A2202102A8FDF70DFA02A953
:10308000286B17F099FC04F12A0315A2202102A84D
:10309000FDF702FA02A9686B17F08EFC94F83A006B
:1030A00008B1134800E0134812F012FD0146A86B66
:1030B00017F049FE0BB030BDCDCCCC3DE000002078
:1030C0002D2D0000252E31660000000025642525E9
:1030D00020E69588E78E8700252E326600000000E6
:1030E000E98086E58F98E599A83A202573000000CD
:1030F00050AF4C009E9E9E0000B58FB090ED010A2F
:103100000F228DED000A90ED020A8DED010A90ED7F
:10311000030A8DED020A90ED050A8DED030A90ED8C
:10312000060A8DED040A90ED070A8DED050A90ED73
:10313000080A8DED060A90ED040A8DED070A90ED60
:103140000A0A8DED080A90ED0B0A8DED090A90ED43
:10315000100ABCEEC00A10EE101A8DF8281090ED7F
:10316000110ABCEEC00A10EE101A8DF8291000F1F9
:1031700048010DF12A00FDF7FEFB00208DF8390013
:10318000062208A10948FDF7E3FA40B15FF000000C
:103190008DF83A006846FFF7FFFE0FB000BD012032
:1031A000F6E700004F4E4C494E45000084C5012013
:1031B00010B5642000F03AF816F020FF164A4FF4DC
:1031C000F053A2F57051A1F11C0012F025FE134836
:1031D00012F032FE1148F02101804FF4A0714180BD
:1031E0000F49416100F17001C16012F04FFE0B48C0
:1031F000503016F0F5FD09480121503001700949A1
:10320000416016F001FE084864213F22C0E9001227
:1032100081605421C16010BDC0CD002034910020D8
:10322000316000087D7B0008C8000020054B642841
:1032300000D808B1012200E000220121184601F067
:103240008CB800000004024070B5074C0025A58032
:1032500065704FF400710548FDF744FB044804F025
:1032600021F96580257070BDB8000020A68B002074
:10327000A08700201CB5CDE90012034607A24FF439
:1032800080711148FDF708F902B00323BDE8104032
:1032900041F288320DA10C4800F076B941542B4D13
:1032A000515454555345524346473D302C312C22FE
:1032B0002573222C222573222C222573222C302CBC
:1032C000302C222200000000A68D00204F4B000071
:1032D0001CB50E4C0422034622703C22CDE900129C
:1032E0000BA24FF4807104F21A60FDF7D5F80323A6
:1032F00042F210720DA104F21A6000F045F90028A4
:1033000002D00520207001201CBD00008C87002009
:1033100041542B4D515454434F4E4E3D302C222599
:1033200073222C25642C2564000000004F4B000004
:10333000F8B5144C074602200D46207041F288363D
:10334000324611A111A000F01BF9002819D03B460C
:1033500011A24FF4807104F21A600095FDF79CF8F9
:103360000323B20008A104F21A6000F00DF900284E
:1033700007D0324604A10DA000F002F9032020700E
:103380000120F8BD8C8700204F4B000041542B4397
:10339000574D4F44453D310041542B43574A41500E
:1033A0003D222573222C22257322000041542B43F9
:1033B000494653520000000070B5214C002504F12D
:1033C0001400257004F06EF81E48458005701E48F4
:1033D00001220168091D02F0C1FC40F6B83000F07E
:1033E00073FE41F28836324618A119A000F0C8F8E1
:1033F0000625002821D001202070324613A115A0F7
:1034000000F0BEF815A11AA0FFF792FFA8B10320A3
:1034100020701BA21DA120A0FFF72CFF68B140F275
:103420005B7121A0FFF754FF38B105202070012106
:1034300021A000F081F8012070BD2570002070BD32
:103440008C870020B8000020000200204F4B0000B5
:10345000415400004154453000000000596F75721E
:103460005769466950617373776F7264000000009A
:10347000596F7572576946695353494400000000FB
:1034800070617373776F726400000000696E766517
:10349000727465720000000050565F496E76657266
:1034A0007465725F303031003139322E3136382E4A
:1034B000312E31303000000070762F696E766572E3
:1034C0007465722F636F6E74726F6C0003480078BE
:1034D000052801D000207047012070478C8700200C
:1034E0007CB5054616460C460846FDF712F9CDE9AF
:1034F00000462B4607A24FF480710D48FCF7CCFF25
:1035000002B00323BDE8704041F2883209A10848A7
:1035100000F03AB841542B4D5154545055423D306F
:103520002C222573222C222573222C25642C30007A
:10353000A68D00204F4B000008B50346009108A25D
:103540004FF480710C48FCF7A7FF01B0032341F250
:1035500088320AA108485DF804EB00F015B80000B5
:1035600041542B4D5154545355423D302C22257318
:10357000222C256400000000A68D00204F4B000087
:10358000032300F001B800002DE9FF5F00241F466F
:1035900093468A46DFF87C80A14632E0FFF754FE6E
:1035A0000098FDF7B6F881B2009800F0FFF802210C
:1035B00019A000F0FBF85E4600F0D4FE054616E0C8
:1035C00098F80110404679B180F8019051461348AF
:1035D000FDF769F818B1012004B0BDE8F09F10A113
:1035E0000E48FDF760F838B90A2000F06DFD00F0D4
:1035F000B9FE401BB042E3D3642000F065FD641CBB
:10360000E4B2BC42CAD308480169491C01610020E8
:10361000E2E70000B80000200D0A0000A68B0020A1
:103620004552524F520000008C870020FEB50C46D8
:103630000546B1F5807F01D90020FEBD18A002210A
:103640000068019001A800F0B1F88DF80040200A50
:103650008DF801000221684600F0A8F821462846AE
:1036600000F0A4F80022114631230FE0685C4240CC
:103670000020160602D583EA420200E05200401CF8
:10368000C0B2D2B20828F4D3491C89B2A142EDD30A
:103690008DF80820012102A800F088F80120FEBD65
:1036A000AA550000F0B52B4E89B04FF0FF313068BD
:1036B0001DF008FE284800276D4690ED010A3C46A3
:1036C00010EE101A009190ED020A10EE101A0191FE
:1036D00090ED050A10EE101A029190ED060A10EE18
:1036E000101A039190ED0A0A10EE101A049190ED51
:1036F0000B0A10EE101A059190ED100A17A1BCEEFE
:10370000C00A10EE100A8DF8180013488DF81970D1
:103710004830FDF75BF900B901240F4810A13030A3
:10372000FDF754F908B944F002048DF81A40200A54
:103730008DF81B001C202F54401CC0B22028FAD347
:1037400030681DF049FE20216846FFF76FFF09B081
:10375000F0BD000070000020D8C4012052554E007A
:103760004C4F434B4544000010B5FFF7AFFE002817
:1037700006D0BDE8104003A1002207A0FFF7B0BEAD
:1037800010BD00007B22737461747573223A22614C
:103790006C697665227D000070762F696E766572A1
:1037A0007465722F737461747573000010B50C46E4
:1037B0000A4601464FF47A73034802F001FB0348BE
:1037C00081682144816010BD000200208C870020A8
:1037D000F0B41B49884231D101684968CAB219491D
:1037E000B1F804340124B3F5806F20D2B1F800544D
:1037F0004A55B1F800345B1CC3F30903A1F8003447
:10380000B1F804345B1CA1F804340F4900268B88FE
:10381000B3F5FF7F07D88B880C4DEF185B1C8B80AE
:103820003A708B88EE540A2A01D10C704C700168F2
:10383000F0BC01220248091D02F090BAF0BC7047AA
:1038400000020020A0870020B8000020A68B0020E6
:1038500072B6FEE710B515F075F90469002C0CD0AE
:10386000204618F0CCFE28B100212046BDE81040CB
:103870001BF062B942F2D171F7E710BD30B5B3F574
:10388000804F05D06FF0704140F82210002030BD0D
:103890008C690B688D6823434C688989240144EA4C
:1038A0000524234343EA014150F82230014C2340D0
:1038B0001943E9E70000F0CF10B50A6850F822304C
:1038C00023F0010340F822308C68082C23D0002319
:1038D0004A682243CC681C430B6922431A434B6954
:1038E0000E4C1A43CB691A430B6A1A434B6A1A43AC
:1038F0008B6A1A43CB6A1A430B6B1A438B691343C7
:10390000CA6B09681A4350F82130A343134340F8A7
:103910002130002010BD4023DAE700007FFF0F00B8
:1039200030B5D1E9003443EA04138C688D89240250
:1039300044EA054423430C8A074D00EB820005EB63
:10394000045423430C7D6D0105EB04648969234312
:103950000B434360002030BD0000F0FF78B5002429
:10396000009490F83C20012A19D0012280F83C20D4
:103970000A6807230568092A13D9EE680A3A02EB98
:10398000420293409E43EE600B788A680A3B03EB49
:1039900043039A400368DD682A43DA6010E002209E
:1039A00078BD2E6902EB420293409E432E610B7854
:1039B0008A6803EB43039A4003681D692A431A612E
:1039C0004A681F23072A13D205686E6B521E02EB4A
:1039D000820293409E436E630B790A885B1E92B20B
:1039E00003EB83039A4003685D6B2A435A6327E025
:1039F00005680D2A12D22E6BD21F02EB8202934071
:103A00009E432E630B790A88DB1F92B203EB83037C
:103A10009A4003681D6B2A431A6311E0EE6A0D3A5F
:103A200002EB820293409E43EE620B790A880D3BC3
:103A300092B203EB83039A400368DD6A2A43DA6299
:103A4000164B0568144A9D4206D10D68122D03D10C
:103A5000556845F48005556005689D4218D10B688E
:103A6000102B01D0112B13D1536843F40003536082
:103A7000096810290CD10A490A4A0968B1FBF2F118
:103A800001EB8101490000E0491E00910029FBD1B2
:103A900080F83C40002078BD002301400020014018
:103AA00014C0012040420F00074910B5884209D1D7
:103AB000FDF7F4FF05480068002803D0BDE810407A
:103AC0001DF04EBD10BD000014C101206800002093
:103AD0000249884201D1FEF703B8704714C10120A2
:103AE000704770B504004FF0000503D0206C00262D
:103AF00010B107E0012070BD204600F01DF866649B
:103B000084F83C60206CC00610D4206C20F48850EF
:103B100040F0020020642046FEF722F96664206C23
:103B200020F0020040F00100206400E0012584F84C
:103B30003C60284670BD000070B586B00646142172
:103B40006846FCF7F1FE1E493068884235D11D48B1
:103B50000025016841F480710160006800F4807004
:103B6000059018481438016841F0010101600068AF
:103B7000694600F0010005907F2000900320CDE908
:103B80000105114800F0ECFA114C1048C4E9000599
:103B90000015A560C4E90350400060618000A06189
:103BA0004011E0614002C4E90805204600F0EAF94E
:103BB00008B1FFF74DFEB463A66306B070BD000008
:103BC00000200140443802400000024010640240DE
:103BD0005CC10120F8B50E4600210446009190F822
:103BE0003C0013460A46012807D0012084F83C0017
:103BF00020688568ED0702D011E00220F8BD8568D5
:103C000045F0010585604048404D0068B0FBF5F087
:103C100000EB400000E0401E00900028FBD120682F
:103C20008568ED0503D5856825F480758560206875
:103C30008568ED075DD0226C40F20165AA4342F42D
:103C4000807222644068400505D5206C20F4005045
:103C500040F480502064206CC00404D5606C20F0D7
:103C60000600606400E0616484F83C10A16B2948A0
:103C7000274DC863A16B28480864A16B2748C86416
:103C800021686FF0220008602068416841F080617F
:103C900041602068816841F480718160216832460A
:103CA0004C31A06B00F0D8F9024668681C49C00688
:103CB000206806D0884224D1816811F0405F13D07B
:103CC0001FE08842F8D0174B984203D1D1F8043353
:103CD000DB06F1D0144B984213D1D1F8041301F054
:103CE0001F011029E8D30CE0816841F08041816018
:103CF00007E0206C40F010002064606C40F0010090
:103D000060641046F8BD000014C0012040420F005E
:103D1000002301400D1A0008911A00087B1A0008C0
:103D20000020014000210140002201402DE9F04126
:103D30000446876D00F016FB064694F83500002512
:103D4000022806D08020606584F834500120BDE848
:103D5000F0812068016821F0160101602068416946
:103D600021F080014161206C08B9A06C20B120686D
:103D7000016821F0080101602068016821F001015B
:103D800001600CE000F0EEFA801B052807D9202026
:103D90006065032084F8350084F83450D7E7206844
:103DA0000068C007EED194F85C103F208840B860EE
:103DB000012084F8350084F834500020C7E790F8DB
:103DC0003510022903D0802141650120704705216B
:103DD00080F835100068016821F0010101600020C1
:103DE000704700002DE9F84304464FF00009CDF874
:103DF000009063484FF41651A56D0068B0FBF1F7D1
:103E00002E6894F85C10082000FA01F131420FD0BE
:103E100021680A6852070BD50A6822F004020A607A
:103E200094F85C108840A860606D40F00100606507
:103E300094F85C104FF0010808FA01F0304208D005
:103E400021684969090604D5A860606D40F0020048
:103E5000606594F85C1004208840304208D02168E6
:103E60000968890704D5A860606D40F004006065AA
:103E700094F85C1010208840304218D021680968FE
:103E8000090714D5A86020680168490304D50068B3
:103E9000000308D5A16C07E00168C90503D40168D7
:103EA00021F008010160216C09B12046884794F88F
:103EB0005C1020208840304231D021680968C90652
:103EC0002DD5A86094F8350005282068016806D033
:103ED000490347D5006800031DD4616C1CE021F044
:103EE000160101602068416921F080014161206C68
:103EF00008B9A06C20B12068016821F008010160B8
:103F000094F85C103F208840A86084F8358084F8DD
:103F10003490216D1FE0E16B09B120468847606D48
:103F200000282BD0606DC00714D0052084F8350020
:103F30002068016821F0010101600098401C009098
:103F4000B84203D820680068C007F6D184F83580ED
:103F500084F83490E16C002910D001B02046BDE80F
:103F6000F04308470168C905D5D4016821F0100164
:103F7000016084F8358084F83490CCE7BDE8F8839C
:103F800014C001202DE9F041044600F0EBF906468B
:103F90005CB1022084F83500002584F83450206894
:103FA000016821F0010101600DE00120BDE8F08110
:103FB00000F0D8F9801B052805D920206065032072
:103FC00084F83500F2E720680068C007F0D1226865
:103FD000116820480140D4E901031843D4E90336AD
:103FE0003343184363691843A3691843E3691843CB
:103FF000236A18430843616A042903D1D4E90B13E7
:1040000019430843106020684069666A20F0070180
:1040100030460E43012704280CD1A06A0643E06A0B
:1040200040B12046FEF7ECFE20B14020606584F8E8
:104030003570BAE7206846612046FEF7CDFE94F859
:104040005C203F2191408160656584F835700020D7
:10405000ACE700003F8010F02DE9F0410446866D8A
:1040600090F83400002501280DD0012084F8340098
:1040700094F835700020012F07D084F83400022511
:104080002846BDE8F0810220FBE7022784F835705E
:1040900060652046FEF7DEFE94F85C103F20884005
:1040A000B0602068016841F016010160206C20B109
:1040B0002068016841F0080101602068016841F052
:1040C00001010160DCE7000070B5044600F04AF928
:1040D0000546601C02D004480078044400F042F910
:1040E000401BA042FAD370BD08C00120F0B587B0D4
:1040F00014216846FCF718FC15480168002924D1F2
:104100000121016013480024016841F001010160B0
:104110000068022500F0010005904FF68070CDE99F
:10412000000502AA03260C2782E8D00069460A4847
:1041300000F016F84CF6B370CDE9000502AA694606
:1041400082E8D000054800F00BF807B0F0BD000091
:1041500000C001203838024000100240000C02402C
:104160002DE9F84FDFF8BCA10022012503264FF00E
:104170000F090AF1040BAAF1040E00BF0B6805FA3F
:1041800002F42340A34270D10F7907F00307012FF7
:1041900001D0022F16D187684FEA420806FA08FCC0
:1041A00027EA0C07D1F80CC00CFA08FC4CEA070C03
:1041B000C0F808C04768A7430C79C4F300149440C2
:1041C0003C4344600C79E443A4070AD0C4684FEA36
:1041D000420C06FA0CF7BC438F6807FA0CF727432A
:1041E000C7600C7904F00304022C12D1D40800EB50
:1041F000840CDCF820405707FF0E09FA07F824EA80
:104200000804D1F8108008FA07F848EA0408CCF846
:10421000208004684FEA420C06FA0CF7BC430F7981
:1042200007F0030707FA0CF7274307604C6814F4FC
:10423000403F70D03C4C276847F480472760246893
:1042400022F0030704F480440094384C07EB040C7C
:10425000DCF8084897074FEA177809FA08F7BC43D3
:10426000334FB84202D1002724E054E0314FB84226
:1042700001D101271EE0304FB84201D1022719E0D9
:104280002E4FB84201D1032714E02D4FB84201D17F
:1042900004270FE02B4FB84201D105270AE02A4F2F
:1042A000B84201D1062705E0284FB84201D10727BF
:1042B00000E0082707FA08F72743CCF80878DAF86F
:1042C00000405746D1F804C09C435FEACC2C00D58F
:1042D0001C433C60DBF800405F46D1F804C09C43BF
:1042E0005FEA8C2C00D51C433C60DEF8004077462A
:1042F000D1F804C09C435FEA8C3C00D51C433C6071
:10430000084F083F3C68D1F804C09C435FEACC3CAE
:1043100000D51C433C60521C102AFFF42FAFBDE8AF
:10432000F88F0000083C0140443802400030014052
:10433000000002400004024000080240000C02405D
:10434000001002400014024000180240001C02400D
:104350000069084000D0012070470AB181617047B0
:104360000904FBE7014880687047000008C001208D
:1043700070B5040013D021684CF6CC400860216869
:1043800045F255500860D4E9000141602168A068F9
:104390008860FFF7E7FF054641F601060DE00120C2
:1043A00070BD00BFFFF7DEFF401BB04205D920689B
:1043B000C068800701D0032070BD2068C0688007F6
:1043C000F0D121684AF6AA200860002070BD00687C
:1043D0004AF6AA2101600020704700000248816867
:1043E000027811448160704708C001200B4810B565
:1043F000016841F400710160016841F4806101606D
:10440000016841F480710160032000F09FF80F20E3
:1044100000F006F800F050F8002010BD003C02400B
:1044200030B505461F4887B00024016841F01001EF
:104430000160006806A900F01000009001A800F0DB
:1044400031F90498A8B100F04DF940001649174A17
:10445000B0FBF1F11648491E026040F2E732C0E9B4
:104460000324C0E90114846100F006FE040003D0B7
:1044700015E000F037F9E9E70D4800F02BFE0400E5
:104480000DD1362000F034F8102D07D20022294635
:10449000362000F03BF80748056000E0012407B033
:1044A000204630BD4038024040420F00001000401E
:1044B000900200200CC001200C4882B0016841F439
:1044C00080410160006800F4804000900748001FB0
:1044D000016841F0805101600068002200F08050C6
:1044E00000900F21901E02B000F010B84438024036
:1044F000002809DB00F01F020121914040098000E3
:1045000000F1E020C0F8001170470000F0B40E4B3D
:104510001B680C46C3F30223C3F10705042D00D921
:104520000425191D072901D2002300E0DB1E012606
:1045300006FA05F1491E214099409E40761E16401C
:104540003143F0BC03F0FDBD0CED00E0064900F086
:10455000070208684FF6FF03184040EA0220034AAA
:1045600010430860704700000CED00E00000FA0501
:104570002DE9F0470E46050065D0DFF81481D8F824
:104580000000F7B200F00700B04207D288F80070D0
:10459000D8F8000000F00700B04254D128683D4C24
:1045A000810712D5400703D5206840F4E050206011
:1045B0002878000703D5206840F460402060206818
:1045C000A96820F0F000084320602878C0072DD0AB
:1045D000304968680839012812D0022813D003280E
:1045E00011D00968890700292DDA216821F003011B
:1045F00001432160FFF7B6FE814641F2883A0EE0A2
:1046000009688903EFE709688901ECE7FFF7AAFE6B
:10461000A0EB0901514502D90320BDE8F0872068CD
:10462000696800F00C00B0EB810FEFD1D8F80010F2
:10463000404601F00701B14207D90770006800F059
:104640000700B04201D00120E7E72878400705D5F0
:104650002068E96820F4E0500843206028780007CB
:1046600006D52068296920F4604040EAC100206036
:1046700000F058F82168084AC1F30311515CC840A2
:104680000649086006480068FFF7CAFE0020C4E734
:10469000003C0240083802404C65020814C001206A
:1046A0000CC001200F2202600C4A136803F00303C0
:1046B0004360136803F0F0038360136803F4E0536E
:1046C000C36012684FF4E05303EAD2020261044867
:1046D000006800F0070008607047000008380240DA
:1046E000003C02400448054900680968044AC1F3D7
:1046F0008221515CC840704714C001200838024034
:104700005C6502080448054900680968044AC1F369
:104710004231515CC840704714C001200838024043
:104720005C650208154810B5006810F00C021448CA
:1047300013D04110042A0FD0082A0ED10F4C241F89
:104740002268236802F03F025B0207D52068C0F3AD
:104750008810A0FB010106E0084610BD2168C1F3E6
:104760008811A1FB00010023FBF71EFE2168C1F3A5
:104770000141491C4900B0FBF1F010BD083802406E
:104780000024F4002DE9F84F04006ED02078DFF803
:104790004C93C007A9F104054AD009F1040001684F
:1047A000C1F38101012908D00068C0F3810002280B
:1047B0000AD1D9F80000400206D52868800337D511
:1047C00060680028E1D033E06068B0F5803F10D029
:1047D000B0F5A02F286810D020F480302860286819
:1047E00020F4802028606068A8B1FFF7BBFD064672
:1047F0000DE0286840F48030F4E740F48020286021
:10480000F7E700BFFFF7AEFD801B642873D8286868
:104810008003F7D50CE0FFF7A5FD064605E000BFD5
:10482000FFF7A0FD801B6428F0D828688003F7D428
:104830002078DFF8AC8280074FF0000A3ED5A74809
:10484000001D016811F00C0F08D00068C0F3810052
:1048500002280BD1D9F80000400207D4286880074D
:1048600016D5E068012800D112E033E1E068B8B164
:104870000120C8F80000FFF775FD064605E000BFFF
:10488000FFF770FD801B0228C0D828688007F7D585
:104890002868216920F0F80040EAC10028600DE096
:1048A000C8F800A0FFF75EFD064604E0FFF75AFDDA
:1048B000801B02281FD828688007F7D420780007BB
:1048C00022D5864F87486169703771B10121016037
:1048D000FFF748FD064604E0FFF744FD801B022871
:1048E00009D838688007F7D50EE0C0F800A0FFF7B8
:1048F00039FD064605E082E0FFF734FD801B022803
:104900007DD838688007F7D42078400768D5DFF86D
:10491000CCB100270BF13C0BDBF80000C0000BD43E
:10492000DBF8001041F08051CBF80010DBF80000FC
:10493000012700F0805000906B4E3068C00510D405
:10494000306840F480703060FFF70CFD009005E0A7
:10495000FFF708FD0099401A022850D83068C005BA
:10496000F6D55E4EA0686C3601280FD00528306859
:1049700010D020F001003060306820F0040030607A
:10498000A068B8B1FFF7EEFC00900FE0306840F08F
:104990000100F4E740F004003060F7E7FFF7E2FCC5
:1049A0000099411A41F28830814266D83068800708
:1049B000F4D50EE0FFF7D6FC009007E0FFF7D2FC3D
:1049C0000099411A41F28830814256D830688007F8
:1049D000F4D42FB1DBF8001021F08051CBF8001097
:1049E000A069C8B33D49091D0968C1F381010229C5
:1049F0004AD00228504607D0C8F8600000E03CE0EA
:104A0000FFF7B0FC04463BE04746C8F86000FFF7FC
:104A1000A9FC064605E000BFFFF7A4FC801B0228A6
:104A20002BD828688001F7D4D4E907010843A16A8C
:104A30002E4A490802EB0141626A41EA82110843A9
:104A400094F82C1040EA0161C9F800100120386682
:104A5000FFF788FC044606E03EE000BFFFF782FC5B
:104A6000001B022809D828688001F7D534E000BF70
:104A7000FFF778FC001B022802D90320BDE8F88F5D
:104A800028688001F4D427E00128F7D0D9F8000085
:104A9000E26900F4800191421CD1226A00F03F01DA
:104AA000914217D147F6C071626A0140B1EB821F93
:104AB00010D1A26A4FF0FF3300F4403103EB5202F1
:104AC000B1EB024F06D194F82C1000F07060B0EBFF
:104AD000016F01D00120D1E70020CFE70438024068
:104AE00000004742800E4742007000400000FFFF78
:104AF00070B5040009D0606A002540B12561656188
:104B0000A56294F8510040B10CE0012070BD6068CE
:104B1000B0F5827FF4D0E561F2E784F8505020468A
:104B200000F044F8022084F851002068016821F068
:104B300040010160A088218900F4827001F40441E1
:104B40000843A18901F400610843217C01F00201BE
:104B50000843217D01F001010843218B01F400711C
:104B60000843217F01F03801084394F8201001F038
:104B700080010843218D01F4005108432168086039
:104B8000A069042101EA104094F8241001F01001FA
:104B90000843216848602068C16921F40061C1614F
:104BA0006565012084F85100002070BD10B586B005
:104BB000044614216846FBF7B7FE14492068884272
:104BC00021D113480021026842F48042026000684B
:104BD00000F4804005900E481038026842F002024E
:104BE0000260006800F0020005904FF470400090F1
:104BF0000220CDE9010103200390052004906946BD
:104C00000448FFF7ADFA06B010BD000000380040C0
:104C100040380240000402402DE9FF4F81B01D469C
:104C2000934604464FF001090E9EFFF79BFB074693
:104C300094F851006168012806D0B1F5827F3CD11B
:104C4000A168C9BB042838D10298002871D0BBF1F3
:104C5000000FFBD0002DF9D094F8500001282CD083
:104C60004FF0010A84F850A094F85100042802D0B3
:104C7000052084F851004FF00008C4F85480C4F8AF
:104C800038B0E587A58702992163E586A586C4F833
:104C90004080C4F8448020680168490603D4016854
:104CA00041F040010160E068B0F5006F606808D035
:104CB000F0B3012D49D081E0FFE7022005B0BDE847
:104CC000F08F08B1012D39D1206B21680088C860B0
:104CD000206B801C2063E08E401EE0862EE0206862
:104CE000816889070FD5E18E69B1B9F1010F0AD149
:104CF000216B0988C160206B801C2063E08E401E00
:104D0000E0864FF0000920688168C9070CD0E18F68
:104D100051B1C068A16B0880A06B801CA063E08FBC
:104D2000401EE0874FF00109FFF71CFBC01B01E0AC
:104D30000BE067E0B04201D3701C50D1E08E002838
:104D4000CDD1E08F0028CAD13EE0206B21680078E9
:104D50000873206B401C2063E08E401EE0862DE02F
:104D60002068816889070FD5E18E69B1B9F1010F1B
:104D70000AD1216B09780173206B401C2063E08EFF
:104D8000401EE0864FF0000920688168C9070CD0FA
:104D9000E18F51B1C068A16B0870A06B401CA0638B
:104DA000E08F401EE0874FF00109FFF7DBFAC01BE0
:104DB000B04202D3701C01D011E086B1E08E002811
:104DC000CED1E08F0028CBD13A463146204602F0C2
:104DD00077FB50B12020606584F8508012E084F8A1
:104DE00051A084F85080032068E7A06818B92068B3
:104DF000C1688068009084F851A084F85080606D8C
:104E00000028F1D0012059E770B515460E46040080
:104E100003D094F8490010B107E0012070BD0020D4
:104E200084F84800204600F01DF804F108012068CD
:104E3000FEF742FD3146A2682068FEF771FDD4E915
:104E400001022946236BFEF719FD2168A06851F87D
:104E5000202042F0010241F82020012084F849007E
:104E6000002070BDFFF742B97047704710B590F849
:104E70003C20012A22D0012280F83C20CA688C689C
:104E800022F4407222434C6822F4806222430C6870
:104E900022F4006222430C6922F4805222434C69BE
:104EA00022F400522243C969002322F480420A43BB
:104EB00001684A6480F83C30002010BD022010BD1B
:104EC00070B590F83C20012A32D0012480F83C4093
:104ED000022280F83D2003685A689D6822F070061F
:104EE0000A6832435A60134B02689A4214D0B2F1F6
:104EF000804F11D0104B9A420ED0104B9A420BD0DB
:104F00000F4B9A4208D00F4B9A4205D00E4B9A4253
:104F100002D00E4B9A4204D1496825F08003194310
:104F2000916080F83D40002180F83C10084670BD3B
:104F3000022070BD00000140000400400008004055
:104F4000000C0040000401400040014000180040F7
:104F500010B50446022249B104290ED0082913D005
:104F600094F84500012816D0012010BD94F84200A5
:104F70000128F9D184F842200FE094F84300012879
:104F8000F2D184F8432008E094F844000128EBD1E2
:104F900084F8442001E084F845200422206802F0CF
:104FA000C2FC2068416C41F4004141641149206811
:104FB000884214D0B0F1804F11D00F4988420ED0F2
:104FC0000E4988420BD00E49884208D00D498842CC
:104FD00005D00D49884202D00C49884204D181682D
:104FE00001F00701062903D0016841F001010160C9
:104FF000002010BD000001400004004000080040F7
:10500000000C004000040140004001400018004036
:1050100070B504460D460068002202F084FC20684A
:10502000036A41F211110B4240F2444206D1036A75
:10503000134203D1436C23F4004343642068036AA2
:105040000B4206D1016A114203D1016821F001012E
:10505000016001203DB1042D08D0082D09D084F84D
:105060004500002070BD84F84200FAE784F8430050
:10507000F7E784F84400F4E710B5040003D094F88F
:105080003D0010B107E0012010BD002084F83C0075
:10509000204600F01EF8022084F83D00211D206803
:1050A00002F0CCFB012084F8460084F83E0084F82E
:1050B0003F0084F8400084F8410084F8420084F8FE
:1050C000430084F8440084F8450084F83D00002043
:1050D00010BD704790F83D10012901D001207047A4
:1050E000022180F83D100168CA6842F00102CA60DE
:1050F00000681149884214D0B0F1804F11D00F4997
:1051000088420ED00E4988420BD00E49884208D002
:105110000D49884205D00D49884202D00C49884289
:1051200004D1816801F00701062903D0016841F02C
:1051300001010160002070470000014000040040B0
:1051400000080040000C0040000401400040014005
:1051500000180040054910B5884206D1002100F032
:10516000C1FBBDE8104001F049BE10BD60C2012086
:105170002DE9F041054690F83C0000260C46012838
:1051800010D0012085F83C0072B1042A1CD0082AF6
:105190002CD00C2A50D00126002085F83C00304647
:1051A000BDE8F0810220FBE7D4E90012E36828683B
:1051B00002F088FC2868816921F00C01816128686F
:1051C0008169A26811430FE0D4E90012E3682868FE
:1051D00002F0B8FC2868816921F440618161286887
:1051E0008169A26841EA02218161D5E72868D4E992
:1051F000002C277B036A016A21F480710162C16976
:1052000023F4206321F0030141EA0C0121F0F00CAA
:1052100039074FF420674CEA116107EA02221A436A
:10522000C16102622868C16921F00C01C16128686E
:10523000C169A26811432BE02868D4E90021E7681E
:10524000036AD0F820C02CF4805CC0F820C0D0F8ED
:105250001CC023F420432CF4407C4CEA012121F4AF
:10526000704C4FF6FF7101EA07314FF4204741EAD5
:105270000C0107EA02321A43C16102622868C1695F
:1052800021F44061C1612868C169A26841EA022134
:10529000C16181E710B5040003D094F83D0010B15E
:1052A00007E0012010BD002084F83C00204600F0FB
:1052B0001FF8022084F83D00211D206802F0BEFA8C
:1052C000012084F8460084F83E0084F83F0084F80A
:1052D000400084F8410084F8420084F8430084F8D8
:1052E000440084F8450084F83D00002010BD000013
:1052F00010B586B0044614216846FBF715FB2068FC
:10530000B0F1804F20D111480021026842F0010223
:105310000260006800F0010005900C481038026837
:1053200042F001020260006800F0010005904FF4B5
:10533000004000900220CDE901010120CDE90310D9
:1053400069460348FEF70CFF06B010BD4038024026
:105350000000024030B50446002551B104290DD0AB
:10536000082910D094F8410094F84520012811D163
:105370000EE094F83E0094F84220F7E794F83F00DE
:1053800094F84320F2E794F8400094F84420EDE7C5
:10539000012A01D0012030BD022059B1042912D0C8
:1053A000082919D084F8410084F845000C2944D01C
:1053B000012540E084F83E0084F842002068C2687D
:1053C00042F0020210E084F83F0084F843002068B5
:1053D000C26842F0040207E084F8400084F8440008
:1053E0002068C26842F00802C2600122206802F010
:1053F0008DFA14492068884214D0B0F1804F11D042
:10540000114988420ED0114988420BD01049884278
:1054100008D01049884205D00F49884202D00F4970
:10542000884204D1816801F00701062903D0016890
:1054300041F001010160284630BD2068C26842F099
:105440001002D1E7000001400004004000080040C5
:10545000000C0040000401400040014000180040E2
:105460002DE9F04104460068C66805694FF0000761
:10547000A90713D5B10711D5F91E016101202077C5
:10548000206880698007204602D0FFF763FE04E0B1
:1054900000F0C0F8204600F071F92777680716D5AC
:1054A000700714D521686FF004000861022020778E
:1054B0002068806910F4407F204602D0FFF74AFE42
:1054C00004E000F0A7F8204600F058F927772807F5
:1054D00015D5300713D521686FF008000861042046
:1054E00020772068C0698007204602D0FFF732FE8F
:1054F00004E000F08FF8204600F040F92777E80636
:1055000016D5F00614D521686FF010000861082048
:1055100020772068C06910F4407F204602D0FFF752
:1055200019FE04E000F076F8204600F027F927770E
:10553000E80708D0F00706D021686FF00100086185
:10554000204600F0BFF9280608D5300606D52168A8
:105550006FF0800008612046FFF786FC680608D5DA
:10556000700606D521686FF040000861204600F003
:10557000CEF9A8060AD5B00608D521686FF020003C
:1055800008612046BDE8F041FFF76FBCBDE8F0813F
:1055900010B586B0044614216846FBF7C5F92368A8
:1055A000174C002117480222A34211D1036843F08F
:1055B00001030360006800F001000590D001009035
:1055C000CDE901210120CDE9031069460E4813E021
:1055D0000E4CA34212D1036843F004030360006839
:1055E00000F004000590C0200090CDE901210320C7
:1055F000CDE9031069460648FEF7B2FD06B010BDBE
:105600000000014030380240000002400004014028
:1056100000080240704770B5044690F83C00002630
:105620000D4601280FD0012084F83C006AB1042AFD
:105630001DD0082A2FD00C2A3FD00126002084F844
:105640003C00304670BD022070BD206802F078F941
:105650002068816941F0080181612068816921F039
:1056600004018161206881692A69114311E0206881
:1056700002F096F92068816941F400618161206837
:10568000816921F480618161206881692A6941EA28
:1056900002218161D2E7206802F0B8F92068C1696F
:1056A00041F00801C1612068C16921F00401C161B4
:1056B0002068C1692A69114311E0206802F0DAF913
:1056C0002068C16941F40061C1612068C16921F4A9
:1056D0008061C1612068C1692A6941EA0221C16112
:1056E000ACE710B5040003D094F83D0010B107E01A
:1056F000012010BD002084F83C00204600F01EF878
:10570000022084F83D00211D206802F097F8012056
:1057100084F8460084F83E0084F83F0084F8400096
:1057200084F8410084F8420084F8430084F844007F
:1057300084F8450084F83D00002010BD08B50C4AEF
:1057400001680C48914207D1016841F001010160F4
:10575000006800F0010009E0074A914207D10168A2
:1057600041F002010160006800F00200009008BDF5
:10577000000001404438024000040140704700002E
:1057800010B50446022249B104290ED0082913D0CD
:1057900094F84100012816D0012010BD94F83E0075
:1057A0000128F9D184F83E200FE094F83F00012849
:1057B000F2D184F83F2008E094F840000128EBD1B2
:1057C00084F8402001E084F841200122206802F0A2
:1057D0009DF816492068164A884201D0904203D1AC
:1057E000436C43F4004343642068884213D0B0F113
:1057F000804F10D00F4988420DD00F4988420AD0FF
:105800000E49884207D0904205D00D49884202D007
:105810000C49884204D1816801F00701062903D0B0
:10582000016841F001010160002010BD000001404D
:10583000000401400004004000080040000C00404B
:10584000004001400018004030B504460D46006895
:10585000002202F05BF8194B41F2111120688A1006
:10586000984202D0164B984209D1036A0B4206D1E6
:10587000036A134203D1436C23F40043436420685A
:10588000036A0B4206D1016A114203D1016821F07B
:105890000101016001203DB1042D08D0082D09D07F
:1058A00084F84100002030BD84F83E00FAE784F817
:1058B0003F00F7E784F84000F4E7000000000140F3
:1058C00000040140054A0168914201D1FEF786BDFE
:1058D0000349884201D101F0FBBE7047001000402F
:1058E000A8C201200246002041B1042909D008299C
:1058F0000AD00C2901D11068006C70471068406B09
:1059000070471068806B70471068C06B70477047B5
:10591000704710B504460068406994F84110C0F320
:10592000C010212911D180B12068143050E8001F27
:1059300021F0800140E80012002AF5D1A06B08B1E7
:10594000FEF7F4F9204602F004FA2068406994F862
:105950004210C0F38010222911D180B12068143088
:1059600050E8001F21F0400140E80012002AF5D164
:10597000E06B08B1FEF7DAF9204602F0C3F9002027
:1059800010BD7047F8B5016804460868CA684B69DD
:1059900010F00F0F4FF0000559D003F0010602F48C
:1059A0009077374365D0C10705D0D10503D5616C29
:1059B00041F001016164410705D5D90703D0616C4D
:1059C00041F002016164810705D5D90703D0616CFC
:1059D00041F004016164010707D502F02001314361
:1059E00003D0616C41F008016164616C00293AD018
:1059F000800604D5900602D5204602F0B8F920684A
:105A00004069616CC0F38010090700D460B3204680
:105A100002F078F920684069400621D520681430EA
:105A200050E8001F21F0400140E80012002AF5D1A3
:105A3000E06BA8B172490165E06BFEF7C0F9002880
:105A400011D0E06B016D01B0BDE8F040084783065E
:105A50000FD593060DD52046BDE8F84002F087B972
:105A60002046FFF78EFFF8BD2046FFF78AFF6564EA
:105A7000F8BD266B2023012E7ED1C6067CD5D60626
:105A80007AD508684868009048694FF002064006D9
:105A90004DD5E26B106840684FF480770004000C2D
:105AA0003AD0A18D814237D9E085D069B8422DD056
:105AB00020680C3050E8001F21F4807140E800128B
:105AC000002AF5D12068143050E8001F21F00101B0
:105AD00040E80012002AF5D12068143050E8001F79
