:020000040800F2
:1000000020CE01204D030008296B0008B15D0008D7
:10001000496700087F1E0008858100080000000075
:100020000000000000000000000000008D02000839
:10003000292F000800000000E9020008717600087E
:1000400067030008670300086703000867030008E8
:1000500067030008670300086703000867030008D8
:1000600067030008670300086703000867030008C8
:1000700067030008670300086703000867030008B8
:1000800067030008670300086703000867030008A8
:100090006703000867030008670300086703000898
:1000A0006703000867030008670300086703000888
:1000B0006703000867030008670300086703000878
:1000C0006703000867030008670300086703000868
:1000D00067030008670300086703000879810008C8
:1000E0006703000867030008670300086703000848
:1000F0006703000867030008670300086703000838
:100100006703000867030008670300086703000827
:1001100067030008E97D0008C57900086703000847
:10012000E92D00086703000867030008670300085B
:1001300067030008670300086703000867030008F7
:1001400067030008670300086703000867030008E7
:1001500067030008670300086703000867030008D7
:1001600067030008670300086703000867030008C7
:100170006703000867030008670300080000000029
:10018000670300086703000800F002F800F06FF84A
:100190000AA090E8000C82448344AAF10107DA45E2
:1001A00001D100F064F8AFF2090EBAE80F0013F0C5
:1001B000010F18BFFB1A43F001031847FCC90300E5
:1001C0003CCA03000A444FF0000C10F8013B13F046
:1001D000070408BF10F8014B1D1108BF10F8015BA0
:1001E000641E05D010F8016B641E01F8016BF9D193
:1001F00013F0080F1EBF10F8014BAD1C0C1B09D1EA
:100200006D1E58BF01F801CBFAD505E014F8016B5B
:1002100001F8016B6D1EF9D59142D6D370470000ED
:100220000023002400250026103A28BF78C1FBD8FF
:10023000520728BF30C148BF0B607047662926F0BF
:100240003782642900F05E81732900F09E860020C9
:1002500070471FB526F027FA00F09CFE040000202E
:10026000002126F093F9E0601FBD10B510BD00F02D
:1002700095FF1146FFF7EDFF20F0E6FC00F0B3FF1D
:1002800003B4FFF7F2FF03BC00F0B8FF2C4B196872
:100290000868B0E8F04F80F30988BFF36F8F4FF024
:1002A000000080F3118870470000000008480068D3
:1002B000006880F308884FF0000080F3148862B66D
:1002C00061B6BFF34F8FBFF36F8F00DF00BF00BF7A
:1002D00008ED00E0DFF80C00016841F470010160F6
:1002E000704700BF88ED00E0EFF30980BFF36F8F28
:1002F000134B1A681EF0100F08BF20ED108A20E97A
:10030000F04F106009B44FF0500080F31188BFF334
:100310004F8FBFF36F8F24F0BFFE4FF0000080F3CC
:10032000118809BC19680868B0E8F04F1EF0100F7A
:1003300008BFB0EC108A80F30988BFF36F8F704755
:1003400018C00120EFF3058070470000094880477E
:1003500009480047FEE7FEE7FEE7FEE7FEE7FEE7A7
:10036000FEE7FEE7FEE7FEE704480549054A064BBF
:10037000704700002577000889010008208C0120C3
:1003800020CE0120208E012020CA012053EA020C39
:1003900000F069802DE9F04B4FF00006002B1FBFE5
:1003A000B3FA83F503FA05F424FA05F65E4012BFAA
:1003B0001643B2FA82F502FA05F4C5F120051EBF14
:1003C00022FA05FC44EA0C04203556EA044C4FEAB4
:1003D000144418BF641C4FF000084FF0000990420D
:1003E00071EB030C39D3002919BFB1FA81F701FA77
:1003F00007F6B0FA80F700FA07F6C7F120071EBF2C
:1004000020FA07FC46EA0C062037B6FBF4FCA7EB03
:100410000507103F07F01F0BCBF120060CFA0BFB72
:100420002CFA06F644BFB3460026202FA4BF5E4632
:100430004FF0000B5BEA060C08BF4FF0010B19EB05
:100440000B09ABFB027C48EB0608C01B06FB02CC89
:100450000BFB03CC71EB0C01C1E70B460246414696
:100460004846BDE8F08B13B54FF000004FF0000197
:10047000AFF30080BDE81C40704700000FB41CB50E
:100480000C0007AA009001D02044401E074B7B447B
:1004900069460190069800F046FD002C03D069469D
:1004A000002000F053FD1CBC5DF814FBC50A0000E1
:1004B00070B50C460546012A05D02878800600D57F
:1004C000EA69002302E0012305E05B1C934202D2AB
:1004D000E05C0028F9D1A869E618C01AA861286A6A
:1004E000184428622846AFF3008004E0D5E90121D2
:1004F00014F8010B9047B442F8D32846AFF30080BC
:1005000070BD00002DE9F0410646002410687529F1
:10051000314616A510D0AFF30080002802DA404221
:1005200013A507E031688A0701D512A502E0490743
:1005300004D511A5012401E0AFF3008000210A22B7
:1005400006F1240709E0B0FBF2FCB0FBF2F302FB7A
:100550001C00303078541846491C0028F3D123463B
:100560002A463046BDE8F04100F070BA00000000B5
:100570002D0000002B000000200000002DE9F047B6
:100580004FF0000A89460446C0F820A02046E168E2
:100590008847002876D0252806D0D4E90121904745
:1005A000206A401C2062F1E7E16820460025884768
:1005B000C4F81CA006460027C4F818A02A2E09D0AB
:1005C000304608F0C5F938B304EB8708303EC8F868
:1005D000186019E059F8041B204604EB870291616A
:1005E000E1688847012F064618D1E069002820DA23
:1005F00025F020051DE0D8F8180000EB800006EB80
:1006000040003038C8F818002046E16888470646A0
:1006100008F09EF90028EED1012F0AD02E2E08D125
:100620002046E16888477F1C0646022F45F02005DA
:10063000C4DBA069002803DA404245F00105A0614F
:10064000E80701D025F01005B6B1A6F14100192840
:1006500002D8203645F400654A46314620462560DA
:100660004D46FFF7EBFD58B1012806D0ED1D25F0F2
:10067000070000F1080989E704E005F1040985E7AE
:1006800030468AE7206ABDE8F08730B505460B465C
:100690002A4613F8014B12F8010B08B1A042F8D01A
:1006A0001CB1002802D06D1CF1E7284630BD40EA9D
:1006B0000103024630B59B0710D14FF0013400E032
:1006C00008C208C91D1B9D4315EAC41FF8D013F0CA
:1006D000FF0102F8011B0DD01B0AF8E711F8013BDE
:1006E000002B02F8013B05D011F8013B002B02F86A
:1006F000013BF3D130BD10B5431C02E010F8011BE3
:1007000071B18107FAD14FF0013202C88C1A8C43C3
:1007100014EAC211F9D0C01A0A0603D0C01E10BDD7
:10072000C01A10BD0A0401D0801E10BD0902FCD001
:10073000401E10BD40EA010370B59B072ED14FF05B
:100740000136042A2AD308C810C99D1B9D43121FD5
:1007500015EAC61517D0D8B2E1B2401A50EA0561C1
:1007600010D198B2A1B2401A50EA05410AD123F043
:100770007F4024F07F41401A50EA052102D1180E33
:10078000A0EB146070BDA342DBD018BA21BA884236
:1007900001D9012070BD4FF0FF3070BD0AB90020B3
:1007A00070BD10F8013B11F8014B63B1A3420AD1AF
:1007B000521E08D010F8013B11F8014B1BB1A342A7
:1007C00001D1521EEDD1181B70BD032A40F23080BA
:1007D00010F0030C00F0158011F8013BBCF1020F82
:1007E000624498BF11F801CB00F8013B38BF11F803
:1007F000013BA2F1040298BF00F801CB38BF00F81A
:10080000013B11F0030300F02580083AC0F0088096
:1008100051F8043B083A51F804CBA0E80810F5E77A
:10082000121D5CBF51F8043B40F8043BAFF300805D
:10083000D20724BF11F8013B11F801CB48BF11F8D2
:10084000012B24BF00F8013B00F801CB48BF00F8A2
:10085000012B704710B5203AC0F00B80B1E818505A
:10086000203AA0E81850B1E81850A0E81850BFF49A
:10087000F5AF5FEA027C24BFB1E81850A0E8185039
:1008800044BF18C918C0BDE810405FEA827C24BF8D
:1008900051F8043B40F8043B08BF7047D20728BF1B
:1008A00031F8023B48BF11F8012B28BF20F8023B6A
:1008B00048BF00F8012B704702F0FF0343EA032210
:1008C00042EA024200F002B84FF000020429C0F0F0
:1008D000128010F0030C00F01B80CCF1040CBCF172
:1008E000020F18BF00F8012BA8BF20F8022BA1EBC4
:1008F0000C0100F00DB85FEAC17C24BF00F8012BA9
:1009000000F8012B48BF00F8012B70474FF00002A0
:1009100000B5134694469646203922BFA0E80C50F5
:10092000A0E80C50B1F12001BFF4F7AF090728BFD0
:10093000A0E80C5048BF0CC05DF804EB890028BF4C
:1009400040F8042B08BF704748BF20F8022B11F075
:10095000804F18BF00F8012B704710B5044610F007
:10096000030F08BF11F0030F40F015804FF0013E58
:10097000121FC0F20E8051F8043BA3EB0E0C2CEAC0
:10098000030C1CEACE1C08BF40F8043BF0D0A1F1D8
:10099000040102F10402521E08DB11F8013B002B96
:1009A00000F8013BF7D11146FFF78EFF204610BD3E
:1009B0004FF0013C50F8042B51F8043B9A4221D1EE
:1009C000A2EB0C03934313EACC1317D150F8042B7A
:1009D00051F8043B9A4215D1A2EB0C03934313EA5E
:1009E000CC130BD150F8042B51F8043B9A4209D197
:1009F000A2EB0C03934313EACC13DBD04FF00000BF
:100A0000704700BFD01A01BAB1FA81F101F01801A4
:100A100022FA01F0CB40C1F12001DBB2C0B2C01A12
:100A20002CFA01F3D11A914311EAC311E6D17047B0
:100A300070477047704710B500F0B0FA006810BDFD
:100A400010B5044600F0AAFA046010BD2DE9F04785
:100A50000D4699469246044600F12408016888062E
:100A600004D5E06921F01001216000E00120A842D6
:100A700001DD471B00E00027A1697A1902EB09009C
:100A8000081AA0612078C00602D42046AFF3008087
:100A9000002608E0D4E901211AF806009047206AF0
:100AA000401C761C20624E45F4DB2078C0060AD537
:100AB0002046AFF3008006E0D4E9012130209047C2
:100AC000206A401C2062381EA7F10107F4DC07E011
:100AD000D4E9012118F805009047206A401C2062E3
:100AE000281EA5F10105F3DC2046AFF30080207835
:100AF000000602D50220BDE8F0870120FBE7704721
:100B00002DE9FF4F0C461E464FF0FF378BB0D2E960
:100B10000001DDF860800A908A46C1F30A5505B9E4
:100B20003D46002108464FF00000BAF1000F00F4E6
:100B3000400005DA00EB80004FF4400101EA50006C
:100B40004FEA9059B9F1010F00DDB9460A9850EA11
:100B50004A000ED044F61050A5F2FF3545432F143D
:100B6000B8F1000F1ED07542291E1EDDC9F100022A
:100B70001CE0B8F1010F4FF0000001D0302103E07C
:100B8000F24305E02154401CB042FBDB304600221A
:100B9000002121540B99C1F80880C1E900200FB051
:100BA000BDE8F08FBD1B6D1CDEE74A4600DA6942E6
:100BB00006A800F07DFA06AB93E8070003AB83E8D4
:100BC000070050460A9900F01FFB8DE80700A0F5CA
:100BD00000501F3800900398002D0ADD42F21F01DB
:100BE0004A460844002303A90390684600F088FDA4
:100BF00009E0A0F500504A461F38002303A90390DE
:100C0000684600F092FD8DE807000004000C03D058
:100C10004FF0FF30410800E01046B8F1000F03D05C
:100C20000022009215461EE0751E05D400F0BAF9A8
:100C3000303262556D1EF9D5B3460122084302D009
:100C400000227F1C04E02078302801D100227F1E82
:100C5000002A099784D01DE0112D07DA00F0A2F9CF
:100C6000303262556D1C50EA0102F5D1084302D0C2
:100C70000098C8B10EE00021681E05E0235C625CAC
:100C800063542254401E491C8142F7DBAB46A81B2B
:100C9000401E0990002004F80B000B98099AC0F838
:100CA0000880C0E9002B7AE711264FF0000857E7CB
:100CB0002DE9F04F88460446D21D22F0070191B07D
:100CC000D1E90001CDE90A0107F0DAFA02460B98F2
:100CD000C00F01D02D2007E02068810701D52B200F
:100CE00002E0202101EAC000032A099001D0072A6E
:100CF00005DB03464146204600F09AF90BE12078D7
:100D0000800601D5E06900E00620B8F1650F814654
:100D100006D0B8F1660F18D0B8F1670F70D131E086
:100D20000020B9F1110F009001DB112301E009F15E
:100D300001030AAA01A90CA8FFF7E2FEDDE90C7085
:100D4000002609F10105834647E001204B4600904B
:100D50004FF000470AAA01A90CA8FFF7D1FEDDE970
:100D60000DB00C995D46002610B909F101000D186F
:100D7000B9EB050003D4C0F1FF3609F10105A5EB7D
:100D800009002BE0B9F1010F01DA4FF00109002051
:100D9000B9F1110F0090484601DD112300E0034630
:100DA0000AAA01A90CA8FFF7ABFEDDE90C704D46BD
:100DB00000268346207800070AD4AB4500DA5D465A
:100DC00001A8012D04DD411911F8011C302907D0BB
:100DD0004F4502DA17F1040F04DA012082460FE0D2
:100DE0006D1EEEE7002F02DCED1B3E4403E0781C95
:100DF000A84200DD7D1CB81B00F1010A4FF000473E
:100E00002078000703D4AA4501DB4FF0FF3A002108
:100E1000B7F1004F0DF143088DF8431024D00220A4
:100E20002B23002F01DA7F422D230A21021EA0F17D
:100E3000010000DC5FB197FBF1FC97FBF1F201FBD5
:100E40001C7C17460CF1300C08F801CDEEE7A8F138
:100E5000010003702188090501D5452100E06521C5
:100E6000A0F1010800F8011C09980FA9A1EB0807DF
:100E7000FF1D00B10120411901EBEA70A16938445E
:100E8000081A401EA0612078C00602D42046AFF3A5
:100E90000080099828B1D4E901219047206A401CBC
:100EA00020622078C00622D52046AFF300801EE0E5
:100EB000002E04DBB34502DD01A8805D00E0302098
:100EC000D4E901219047206A401C2062761CAAF1D7
:100ED00001005FEA000A0AD100F05CF8C06801680E
:100EE000405CD4E901219047206A401C2062281E02
:100EF000A5F10105DCDC07E0D4E9012118F8010BBC
:100F00009047206A401C2062381EA7F10107F3DCDD
:100F10002046AFF30080032011B041E601694A1C6E
:100F200002610878704700B58FB0CDE9013100212A
:100F3000059105497944CDE9031011466846FFF74C
:100F40001DFB0FB000BD0000E5FFFFFF0A6802F8BF
:100F5000010B0A607047D1E900239A4202D2531C68
:100F60000B601070704710B5436913B1AFF3008088
:100F700001E0FFF79DFA012010BD127800F1240175
:100F80000A7000224A700122EDE711684FF0FF322B
:100F9000E9E7000000487047E0C9012000487047B9
:100FA000C0C9012030B5B0F10A024FEA900E71F1CC
:100FB00000034EEA817EB0EB0E0061EB91014FEA37
:100FC000101E4EEA017E10EB0E0041EB11114FEAAC
:100FD000102E4EEA016E10EB0E0041EB11214FEA8C
:100FE000104E4EEA014E10EB0E0041EB114140183D
:100FF00041F100014FEAD00040EA41704FEAD101CF
:1010000010EB80054FEA810444EA907444EB01043C
:101010006D1944EB0404521BA3414FF0000348BF79
:101020000A3200D530BD401C41F1000130BD000046
:101030002DE9F0411F46044603260168072A01F402
:10104000006004DB08B116A505E016A503E008B1B1
:1010500015A500E015A521F010002060A069C01EB4
:10106000A0610FB1401EA0612046AFF300804FB1D8
:10107000D4E9012138469047206A401C2062C01CF8
:10108000206206E0206AFAE7D4E9012115F8010B95
:101090009047761EF8D22046AFF30080BDE8F0817D
:1010A0004E414E006E616E00494E4600696E66000C
:1010B0002DE9F047814616468AB0354878440DC878
:1010C0008DE80D0032487844801C03AC0DC884E8DC
:1010D0000D0041F69B300844372190FBF1F290FB64
:1010E000F1F5A5F1800501FB12041B3C02D5644219
:1010F000012000E00020DFF898A080460027FA4495
:10110000AAF1BE0A0EE0E0070AD03246684607EBB5
:10111000470101230AEB810100F007FB8DE807007E
:1011200064107F1C002CEED1194F7F44AE3F19E0B4
:10113000E80715D007EB04100DF1180A90E80E002F
:101140008AE80E00C068F04201D198190890324632
:10115000012306A903A800F0E8FA03AB83E807001F
:101160006D10641C002DE3D14FF001033246694637
:10117000B8F1000F03A802D000F0C2FA01E000F0BD
:10118000D4FAC9E90001C9F808200AB0BDE8F0871F
:10119000ACB9030000487047C0C901207546FFF78D
:1011A000F9FFAE4605006946534620F00700854624
:1011B00018B020B5FFF7D8F8BDE820404FF0000682
:1011C0004FF000074FF000084FF0000B21F007012F
:1011D000AC46ACE8C009ACE8C009ACE8C009ACE872
:1011E000C0098D46704710B50446AFF30080204615
:1011F000BDE81040FFF744B87047000001491820CF
:10120000ABBEFEE7260002005FEA400C08BF91F08B
:10121000000F4FEA8C234FEAC12243EA51514FEAB3
:101220001C5018BF00F5F0404FEA300018BF41F0E5
:1012300000415FEA6C5C00F02980BCF1FF3F08BF11
:1012400040F080407047130C06BF12044FF0100CA2
:101250004FF0000C130E04BF12020CF1080C130F18
:1012600004BF12010CF1040C930F04BF92000CF1A7
:10127000020CD30F04BF52000CF1010C11464FF0C9
:101280000002A0F11F00A0EB0C00704711F0004F0E
:1012900008BF704731F000413FF4D5AF0B0C06BFDB
:1012A00009044FF0100C4FF0000C0B0E04BF0902A4
:1012B0000CF1080C0B0F04BF09010CF1040C8B0F8F
:1012C00004BF89000CF1020CCB0F04BF49000CF1E4
:1012D000010CCCF12003A0EB0C0022FA03F302FA7C
:1012E0000CF241EA030100F10100704720F07F4C4D
:1012F00080EA030023F07F47ACEB070303F57C5340
:1013000000F0004003F1FF032DE980494FEA154B3F
:1013100009B44FEA144325EA0B4E24EA03480FF2BE
:10132000042606EB132749083E785FEA320203FBE6
:101330000667C7F5000707FB06F64FEA54374FEA82
:10134000D64606F1020607FB066CCCF1005C4FEABC
:101350001C472CEA074C07FB06F40CFB06F504EBD4
:1013600015464FEA961634BF00204FF000404FEA72
:10137000D13706FB07FC4FEA1C4C0CFB0BF7D21BCA
:1013800003FB0CF761EB07010CFB0EF7B0EB07401A
:1013900072EB17420CFB08F734BFA2EB0742B2EB2B
:1013A000074261EB17414FEA0C444FEA910706FBF5
:1013B00007FC4FEA1C4C0CFB0BF7B0EBC74072EB81
:1013C000573203FB0CF734BFA2EBC742B2EBC74264
:1013D00061EB57310CFB0EF7B0EBC70072EB5772A5
:1013E0000CFB08F734BFA2EBC702B2EBC70261EBFC
:1013F0005771039F4FEA816141EA921104EBCC04DB
:101400004FEAD1374FEA826206FB07FC42EA9012AC
:101410004FEA80604FEA1C4C0CFB0BF7D21B03FB1E
:101420000CF761EB07010CFB0EF7B0EB074072EB1A
:1014300017420CFB08F734BFA2EB0742B2EB07429E
:1014400061EB17414FEA8C554FEA910704EB9C245E
:1014500006FB07FC4FEA1C4C0CFB0BF7B0EBC7403C
:1014600072EB573203FB0CF734BFA2EBC742B2EB6F
:10147000C74261EB57310CFB0EF7B0EBC70072EBC4
:1014800057720CFB08F734BFA2EBC702B2EBC702DE
:1014900061EB577115EB4C254FEA816141EA9211DE
:1014A0004FEA82624FEAD13742EA901206FB07FC0C
:1014B00044F100044FEA80604FEA1C4C0CFB0BF730
:1014C000D21B03FB0CF761EB07010CFB0EF7B0EB33
:1014D000074072EB17420CFB08F734BFA2EB074240
:1014E000B2EB074261EB174115EB1C154FEA813156
:1014F00041EA92414FEA823242EA90424FEA80301A
:101500004FEA0C7644F1000448EA03434EEA0B48E4
:101510004FF0000EB2EB080C71EB030724BF6246DC
:1015200039464EEB0E0E4FF0000B00185241494168
:101530004BEB0B0BB2EB080C71EB03077BF1000BD1
:1015400024BF624639464EEB0E0E4FF0000B0018DA
:10155000524149414BEB0B0BB2EB080C71EB03070B
:101560007BF1000B24BF624639464EEB0E0E51EA6A
:10157000020718BF46F0010616EB0E7655F1000281
:1015800054F1000103D5BDE88901BDE80088BDE83C
:101590008901BDE80048B619524141EB0101A3F1B0
:1015A0000103704780807F7E7D7C7B7A79787776B7
:1015B00076757473727171706F6E6E6D6C6C6B6A30
:1015C0006A696868676666656464636362616160CE
:1015D000605F5F5E5E5D5D5C5C5B5B5A5A5959584B
:1015E00058575756565555555454535352525251B5
:1015F000515050504F4F4F4E4E4D4D4D4C4C4C4B0B
:101600004B4B4A4A4A494949484848474747474651
:10161000464645454544444444434343434242428D
:1016200042414141002B9C4630D477002BD01CB561
:101630004FEA370703B44FF010004FF01001BAF132
:10164000000F06D0BCF1000FDCBF40F0080040F0F6
:1016500008014FF000000FBCBDE810400BF1010B7A
:10166000BBF1010F08BF5FEA170722BF12F10102A9
:1016700011F101014FF0004143F1000300F000407F
:1016800043EA00007047F9D35708D0E746EA064618
:1016900013F1400F4FEA16461FDD13F1200FDFBF95
:1016A00016430A46002120335B42BED0C3F1200717
:1016B00046EA064602FA07F74FEA164646EA0706E2
:1016C000C3F1200722FA03F201FA07F721FA03F126
:1016D0004FF0000342EA0702A7E746EA020646EA9D
:1016E00006464FEA164646EA0106BCBF46EA0646EB
:1016F000360C4FF000034FF000024FF0000194E76A
:101700002DE9804C9A46934670B491E8380007C89A
:1017100031EA400C48BF34EA430C03D5FFF7E6FD3D
:10172000FFF780FFF0BCBDE8008C2DE9804C9A46A5
:10173000934670B491E8380007C810F0804F08BF96
:1017400013F0804F03D100F005F8FFF76BFFF0BCFA
:10175000BDE8008C20F07F4780EA030023F07F4C37
:1017600007EB0C03A3F57C5300F00040A3F1FE034C
:1017700092F0000F00F0B38095F0000F00F077803A
:101780002DE901494FEA11404FEA144621EA004889
:1017900000FB06FC24EA064708FB06F607FB08F8F0
:1017A00000FB07F718EB06484CEB164C4FEA124BC0
:1017B00018EB07484FEA15464CEB174022EA0B4E50
:1017C0000BFB06FC25EA06470EFB06F607FB0EFEA2
:1017D0000BFB07F71EEB064E4CEB164C4FF00006CA
:1017E0001EEB074E4CEB174B18EB0B0840F10000BB
:1017F00018EB0E0B58EB000840F100008F1A4FF069
:1018000000013CBFC943661B14BFB5EB040C0021AB
:101810003CBFC943F61B4FEA17444EEA8E0E27EA37
:1018200004454FEA1C4704FB07622CEA074C05FB02
:1018300007F70CFB05F604FB0CFC16EB074642EB26
:10184000174216EB0C4642EB1C421BEB060658EB0C
:101850000202414146EA9E0601D5BDE80189B6195A
:10186000524141EB0101A3F10103BDE801894FEAB7
:1018700014454FEA114724EA054621EA074C05FBC7
:1018800007F406FB07F70CFB06F105FB0CFC11EB5C
:10189000074144EB17444FEA124711EB0C4144EB6C
:1018A0001C4422EA074C05FB07F206FB07F70CFB7A
:1018B00006F605FB0CFC16EB074642EB174216EB4F
:1018C0000C4642EB1C456A1854F1000148BF7047B2
:1018D000B619524141EB0101A3F10103704795F0A4
:1018E000000F37D04FEA11424FEA144721EA02466F
:1018F00024EA074C02FB07F106FB07F70CFB06F492
:1019000002FB0CFC14EB074441EB17414FEA15476F
:1019100014EB0C4441EB1C4125EA074C02FB07F594
:1019200006FB07F70CFB06F602FB0CFC16EB074662
:1019300045EB174516EB0C4645EB1C42121951F1CD
:10194000000148BF7047B619524141EB0101A3F1B4
:10195000010370474FEA14454FEA114724EA054650
:1019600021EA074C05FB07F106FB07F70CFB06F223
:101970004FF0000605FB0CFC12EB074241EB174150
:1019800012EB0C4251EB1C4148BF7047921841EBDF
:101990000101A3F101037047F0EE040A9FED0F1A55
:1019A00070EE600A0E4B0F490F4A80EE810AF0EE8E
:1019B000C00A10EE900A984202DA9FED0C0A7047B6
:1019C00010EE100A904202DDB1EE040A704710EEEC
:1019D000100A8842FAD9B9EE040A7047A4703D3E55
:1019E0000AD7A33C0000A0C00000A04000000000F7
:1019F00010B50146806B026C12F0500F05D0026CDE
:101A0000D20626D501F0ACFF10BD016C41F4007187
:101A1000016401688A6812F0405F17D1027EAAB99A
:101A2000CA6A12F4700F02D08A6852050ED44A684E
:101A300022F020024A60016C21F480710164016C83
:101A4000C90403D4016C41F00101016401F06CFF91
:101A500010BD806BC26CBDE810400846104710B541
:101A6000806B40210164416C41F00401416401F04C
:101A700077FF10BD10B5806B01F06AFF10BD00004C
:101A800030B50E4B002003F1380400224FEA02016A
:101A9000C1EBC105054403EB4505AD8B491CC9B23B
:101AA0002A440229F4D3510824F81010401CC0B273
:101AB0000728EAD302490120487030BD6086002023
:101AC0005400002030B50E4B002003F138040022F2
:101AD0004FEA0201C1EBC105054433F81550491C1A
:101AE000C9B22A440229F5D3510824F81010401C29
:101AF000C0B20728EBD303490120087030BD0000B5
:101B0000608600205400002010B538210448FEF7FC
:101B1000DBFEBDE810401C220149024801F09ABFDB
:101B20006086002070C1012000EE100ADFED0B0A74
:101B300010B5B8EE400A20EE200ADFED090A20EECB
:101B4000200AFFF729FF07489FED071AD0ED030A87
:101B500000F08CF980ED030A10BD000033335340D0
:101B60000000803944860020CDCC4C3E00EE100AA7
:101B7000DFED1A0A1D4AB8EE400A10B51A4920EEE8
:101B8000200ADFED170A907820EE200ADFED150A13
:101B900001EB8003401C30EE600A00F0030083ED8F
:101BA000000A90709FED120A5FF0000001EB8002C6
:101BB000401CD2ED000AC0B2042800EEA00AF5D302
:101BC000F5EE000A20EE200A06F0BEFD0648543865
:101BD000D0ED0E0A20EE800A10BD000033335340D2
:101BE000000080393333D33FFC86002054000020AE
:101BF0000000000000EE100ADFED100A1148B8EEF8
:101C0000400A00B59FED101A20EE200ADFED0C0A05
:101C100020EE200AD0ED060A30EE600AD0ED070A69
:101C200020EE200AD0ED080A643820EE800AD0EDBC
:101C3000020A00F01BF980ED020A00BD3333534065
:101C400000008039A8860020CDCC4C3E10B504F0B1
:101C50006DFF05489FED051AD0ED050A00F006F965
:101C600080ED050A10BD000044860020CDCC4C3E1E
:101C700000EE100ADFED0B0A10B5B8EE400A20EEB8
:101C8000200ADFED090A20EE200AFFF785FE07484B
:101C90009FED071AD0ED010A00F0E8F880ED010A87
:101CA00010BD0000333353400000803944860020CB
:101CB000CDCC4C3E00EE100ADFED100A1148B8EE14
:101CC000400A00B59FED101A20EE200ADFED0C0A45
:101CD00020EE200AD0ED000A30EE600AD0ED010AB5
:101CE00020EE200AD0ED020A643820EE800AD0ED02
:101CF000000A00F0BBF880ED000A00BD333353400A
:101D000000008039A8860020CDCC4C3E072801D3A6
:101D100000207047014931F8100070479886002074
:101D200010B504F003FF05489FED051AD0ED060A33
:101D300000F09CF880ED060A10BD000044860020EB
:101D4000CDCC4C3E464910B54A6822F440324A6038
:101D50004A6843681A434A6001684A6822F48072FC
:101D60004A6001684A68036942EA03224A600168DE
:101D70004A6822F040724A6001684A6883681A43E0
:101D80004A6001688A6822F400628A6001688A6891
:101D9000C3681A438A60816A6FF07062D142016839
:101DA0008A6822F070628A6001688A680CD0836A4F
:101DB0001A438A6001688A6822F040528A6001688A
:101DC0008A68C36A1A4301E022F040528A600168BF
:101DD0008A6822F002028A6001688A68037E42EA09
:101DE00043028A6090F82010002901684A680FD0E9
:101DF00042F400624A6001684A6822F460424A6024
:101E000001684A68174C436A04EB43331A4301E004
:101E100022F400624A600168CA6A22F47002CA624F
:101E20000168CA6A838B104C04EB03531A43CA62DD
:101E300001688A6822F400728A6001688A6890F8F2
:101E4000303042EA43228A6001688A6822F4806264
:101E50008A6001688A68406942EA8020886010BD13
:101E60000023014000E0FFFF0000F0FFF7EE001A42
:101E700021EE000A31EEC11A01EE200A7047FEE79A
:101E800030B503464FF6FF700022074C08E09D5C1A
:101E90004540EDB2521C34F8155092B285EA10203C
:101EA0008A42F4D330BD0000F06B02082DED0A8B9E
:101EB00000250020FFF72AFF83460120FFF726FFB9
:101EC00082460220FFF722FF81460320FFF71EFF14
:101ED00080460420FFF71AFF07460520FFF716FF8C
:101EE00006460620FFF712FF04465846FFF7E2FEBB
:101EF000F0EE409A5046FFF7BBFEF0EE408A4846AF
:101F0000FFF778FEB0EE40BA4046FFF70DFEB0EEA8
:101F1000408A3846FFF72AFEB0EE409A3046FFF777
:101F200095FEF0EE40AA2046FFF7FAFE0A24B5FB24
:101F3000F4F069EEA8BA29EE08CA04FB1050B0EE1E
:101F400040AAC0B905F0A6F9F0EE40CAF0EE680A62
:101F5000B0EE690A04F026F804F068F800EE100A02
:101F6000B8EE400A20EE2C0ABCEEC00A10EE100AB1
:101F7000C0B204F0CFF8B5FBF4F004FB105078B910
:101F800005F088F9DFED390A20EE200ABCEEC00A20
:101F900010EE100AC0B20A2800D20A2005F0BCFADE
:101FA000B0EE490A04F0A0FEB0EE490A05F0C2FB0B
:101FB00008B105F0DBFBF0EE4A1AB0EE6A1AF0EE5B
:101FC000480AB0EE690A04F0C5FF08B105F0C6F88A
:101FD00004F05CFE08B126A700E026A7274E4FF0CC
:101FE000FF31B06A1FF038FA254CC4ED019AC4EDF8
:101FF000028AC4ED03BA84ED04BA84ED059A84ED37
:10200000068A84ED07CA04F0E5FD84ED080AC4EDF4
:102010000AAA84ED0BAA04F009F800EE100AB8EE43
:10202000400A84ED100A04F007F884ED110A05F067
:102030007BFC84ED1E0A04F0CDFD84ED1F0A04F044
:10204000CFFD84ED200A3868A064B06A1FF08EFAD4
:1020500032206D1CB5FBF0F100FB115008B903F004
:102060009BFF0A201FF005F923E700000000A042B3
:1020700052554E0053544F500000000024000020E1
:102080002406012070B519F055FF734CE622F021AB
:10209000E0601CF064FE28220021E0681CF040FE95
:1020A0006E4813F0DFFD01460022E0681CF03FFFA0
:1020B00000220A21E0681CF087FF0121E0681CF083
:1020C000F5FD002302221946E0681CF0D3FD002232
:1020D0000821E0681CF099FF0121E06819F0A8FAD6
:1020E000E06818F0B5F805465DA118F02FFD6048CE
:1020F00013F0B8FD0146002228461CF0C2FF002262
:102100005C4928461CF0C9FFDC2128461CF0D9FF99
:102110000022012128461CF0AFFF57A257A1E0681A
:1021200000F04AF942F2D171E0631CF0CFFDE06BA0
:1021300018F08EF8054656A118F008FD00224D490A
:1021400028461CF0AAFFE06B18F082F8054655A15E
:1021500018F0FCFC0022474928461CF09EFFE06B6B
:1021600018F076F8054654A118F0F0FC0022414919
:1021700028461CF092FF55A256A1E06800F01CF919
:10218000206418F065F8054656A118F0DFFC00221F
:10219000384928461CF081FF57A258A1E06800F09A
:1021A0000BF9606418F054F8054659A118F0CEFCFC
:1021B0000022304928461CF070FF606C18F048F887
:1021C000054658A118F0C2FC00222A4928461CF0F6
:1021D00064FF606C18F03CF8054657A118F0B6FC97
:1021E0000022244928461CF058FF606C18F030F893
:1021F000054656A118F0AAFC00221E4928461CF0EC
:102200004CFF57A258A1E06800F0D6F8A06418F07F
:102210001FF8054658A118F099FC002215492846D8
:102220001CF03BFFA06C18F013F8054658A118F0FD
:102230008DFC00220F4928461CF02FFFA06C18F0DF
:1022400007F8044658A118F081FC2046BDE870400C
:10225000002208491CF021BF58000020F5F5F500C8
:1022600020204D515454E5B7B2E8BF9EE68EA5003C
:1022700050AF4C0040C30208E2988000E58589E435
:10228000BC8FE8BE93E585A5E6A8A1E59D97000073
:10229000E8BE93E585A5E794B5E58E8B3A202D2D14
:1022A00020560000E8BE93E585A5E794B5E6B58124
:1022B0003A202D2D20410000E8BE93E585A5E58A52
:1022C0009FE78E873A202D2D20570000F09F948B9A
:1022D00000000000E6AF8DE7BABFE6A8A1E59D9734
:1022E00000000000E6AF8DE7BABFE794B5E58E8B3E
:1022F0003A202D2D20560000E29AA100E4BAA4E66F
:10230000B581E8BE93E587BAE6A8A1E59D970000F0
:10231000E8BE93E587BAE794B5E58E8B3A202D2D7C
:1023200020560000E8BE93E587BAE794B5E6B5818C
:102330003A202D2D20410000E8BE93E587BAE58ABA
:102340009FE78E873A202D2D20570000E794B5E7B0
:10235000BD91E9A291E78E873A202D2D20487A0081
:10236000F09F8CA100000000E6B8A9E5BAA6E4B889
:102370008EE78AB6E6808100E5898DE7BAA7E6B8E0
:10238000A9E5BAA63A202D2D20C2B04300000000D6
:10239000E5908EE7BAA7E6B8A9E5BAA63A202D2DB2
:1023A00020C2B043000000004D505054E78AB6E60A
:1023B00080813A202D2D00002DE9F04190460F46F6
:1023C00019F0B8FD0446DC211CF07BFE6FF07F4065
:1023D00013F048FC0146002220461CF0A8FD002214
:1023E000082120461CF032FE00220A2120461CF063
:1023F000EBFD1021204619F00DFD204619F09AFD45
:1024000005461E22C8211CF0AAFC002211462846BF
:102410001CF099FD0022114628461CF0A5FD002263
:10242000114628461CF0D0FD1021284619F0F2FC78
:10243000284617F00DFF06463B4642462AA118F0F3
:10244000BCFB00222A4930461CF027FE294813F025
:1024500009FC0146002230461CF013FE00231A46F8
:102460000721304619F08EF9284617F0F1FE06468E
:1024700021A118F06BFB214813F0F4FB0146002268
:1024800030461CF0FEFD00231A460821304619F0A4
:1024900079F9204619F04EFD04460022C8211CF0AF
:1024A0005EFC0022114620461CF04DFD0022114624
:1024B00020461CF059FD0022114620461CF084FDE8
:1024C0000022114620461CF075FD1021204619F00F
:1024D000A1FC002307220A4928462C6119F05CF868
:1024E0002046BDE8F0810000257320257300000020
:1024F00084F8020833333300EF81B8007575750036
:10250000D536000870B519F015FD04462822F021D3
:102510001CF025FC0022114620461CF001FC244D35
:10252000284613F09FFB0146002220461CF0FFFCCA
:102530000022114620461CF089FD0022114620464B
:102540001CF042FD0022114620461CF00DFD2046E5
:1025500017F07EFE064617A118F0F8FA13F0D9FC22
:102560000146002230461CF08CFD00221549304601
:102570001CF093FD304619F091FB204618F070FBDB
:10258000114C08221146A0631CF0E9FB1022D22155
:10259000A06B1CF0C5FB284613F064FB0146A06B42
:1025A00018F09BFCA06BBDE8704018F083BC0000E5
:1025B00050AF4C00E58589E4BC8FE79B91E68EA780
:1025C000000000009C360308580000202DE9F84F59
:1025D00019F0B0FCDB4CE622F021A0601CF0BFFB40
:1025E00028220021A0681CF09BFBD74813F03AFB7F
:1025F00001460022A0681CF09AFC00220A21A06873
:102600001CF0E2FC0121A0681CF050FB0023022218
:102610001946A0681CF02EFB00220821A0681CF0BF
:10262000F4FCA06819F086FC81463C22DC211CF0F9
:1026300096FB6FF07F46304613F014FB01460022F4
:1026400048461CF074FC0022082148461CF0FEFCA1
:1026500000220A2148461CF0B7FC1021484619F018
:10266000D9FB484617F0F4FD0746B8A118F06EFAFA
:10267000B94D284613F0F6FA0146002238461CF000
:1026800000FD0022B54938461CF007FD00231A461C
:102690000121384619F076F8484617F0D9FD07466B
:1026A000AFA118F053FA0022B44938461CF0F5FCEB
:1026B000DFF8CC82404613F0D5FA014600223846B6
:1026C0001CF0DFFC122300220121384619F05AF8D1
:1026D000484617F0BDFD8146AAA118F037FA00223E
:1026E000AE4948461CF0D9FCAD4F384613F0BAFA53
:1026F0000146002248461CF0C4FC2423002201218C
:10270000484619F03FF8A06819F014FC824664228C
:10271000DC211CF024FB304613F0A4FA0146002211
:1027200050461CF004FC0022082150461CF08EFC90
:1027300000220A2150461CF047FC1021504619F097
:1027400069FB504617F084FD814696A118F0FEF90A
:102750000022824948461CF0A0FC384613F082FA59
:102760000146002248461CF08CFC00231A46022138
:10277000484619F007F8504617F06AFD8EA16061CF
:1027800018F0E4F900228D4960691CF086FC2846A7
:1027900013F068FA0146002260691CF072FC1423F1
:1027A0006FF00E020221606918F0ECFF504617F03E
:1027B0004FFD814682A118F0C9F900226F494846B1
:1027C0001CF06BFC284613F04DFA014600224846E7
:1027D0001CF057FC00200090052315224846616933
:1027E00018F0DEFF504617F033FD76A1A06118F017
:1027F000ADF900225949A0691CF04FFC384613F08E
:1028000031FA01460022A0691CF03BFC00231A4665
:102810000521A06918F0B6FFA06819F08BFB0746E8
:102820007822DC211CF09BFA0022114638461CF06D
:102830008AFB0022114638461CF096FB0022114606
:1028400038461CF0C1FB042138461CF02FFA002347
:102850001A46052138461CF00DFA00220821384698
:102860001CF0D3FB1021384619F0D4FA3725442345
:1028700057A258A13846009500F094F9E06144232E
:1028800058A259A13846009500F08CF920624423E3
:102890004FA259A13846009500F084F960624423A4
:1028A00059A25AA13846009500F07CF9A062442351
:1028B0005AA25BA13846009500F074F9E062442307
:1028C00056A25BA13846009500F06CF92063A06821
:1028D00019F030FB05462822DC211CF040FA304676
:1028E00013F0C0F90146002228461CF020FB00220C
:1028F000082128461CF0AAFB0022082128461CF0CB
:1029000063FB1021284619F085FA284617F0A0FC31
:102910004BA1606318F01AF900221049606B1CF09B
:10292000BCFB404613F09EF901460022606B1CF090
:10293000A8FB606B01B00023BDE8F04F1A460721E9
:1029400018F020BF58000020F5F5F5002020E59C88
:10295000A8E7BABF0000000050AF4C0040C3020817
:10296000E699BAE883BDE58589E4BC8FE5BEAEE9AA
:102970008086E58F98E599A80000000084F8020899
:1029800033333300E8AEBEE5A48749443A205056BD
:102990002D494E562D303031000000006C96020853
:1029A00075757500E5BD93E5898DE58F91E794B563
:1029B000E58A9FE78E8700002D2D000044C803089C
:1029C000570000002D2D2520E69588E78E87000012
:1029D00056000000E58589E4BC8FE794B5E58E8B51
:1029E0000000000041000000E58589E4BC8FE79409
:1029F000B5E6B58100000000E4BAA4E6B581E7942D
:102A0000B5E58E8B00000000487A0000E794B5E73A
:102A1000BD91E9A291E78E8700000000C2B043009B
:102A2000E5898DE7BAA7E6B8A9E5BAA600000000D7
:102A3000E5908EE7BAA7E6B8A9E5BAA600000000BF
:102A4000E98086E58F98E599A83A20E5819CE6AD76
:102A5000A200000070B519F06DFA494C3222F02145
:102A600020611CF07CF94FF48772002120691CF072
:102A700057F96FF07F4013F0F5F801460022206906
:102A80001CF055FA0022114620691CF0DFFA0022E2
:102A9000052120691CF098FA0022012120691CF010
:102AA00063FA384E304613F0DDF801460022206903
:102AB0001CF04EFA1021206919F0ACF9206912F0CF
:102AC00085FD0546282264211CF049F92E4813F0A3
:102AD000C9F80146002228461CF029FA00210B46BD
:102AE000296107222949284618F056FD00230A22A9
:102AF0000721284618F046FE284617F0A9FB054690
:102B000023A118F023F813F004FA01460022284606
:102B10001CF0B7FA284619F0C1F8206912F056FDEA
:102B20000446282264211CF01AF9304613F09AF862
:102B30000146002220461CF0FAF901212161002300
:102B400007221249204618F027FD00236FF00902E2
:102B50000821204618F016FE204617F079FB04469F
:102B60000DA117F0F3FF0E4813F07CF80146002288
:102B700020461CF086FA2046BDE8704019F08EB859
:102B800058000020F5F5F50050AF4C00C56B00086B
:102B9000E9A696E9A1B50000E8AFA6E683850000A6
:102BA000333333002DE9F8431D4617468846089C09
:102BB00019F0C0F90646224629461CF0D0F86FF0FD
:102BC0007F4013F04FF80146002230461CF0AFF969
:102BD0000022082130461CF039FA00220821304634
:102BE0001CF0F2F900220A2130461CF040FA4FF0A6
:102BF000005013F037F80146002230461CF02BFA43
:102C00001021304619F006F9304617F021FB044632
:102C100027A117F09BFF0022264920461CF03DFA11
:102C2000254813F01FF80146002220461CF029FA1F
:102C300000231A460121204618F0A4FD304617F063
:102C400007FB0546394617F081FF00221B4928463D
:102C50001CF023FA1A4F384613F004F801460022FC
:102C600028461CF00EFA002000900223152221466F
:102C7000284618F095FD304617F0EAFA0546414619
:102C800017F064FF00220D4928461CF006FA38466A
:102C900012F0E8FF0146002228461CF0F2F900235A
:102CA0001A460421284618F06DFD2046BDE8F88339
:102CB0002D2D000084F802083333330040C302088E
:102CC0007575750010B5204A002120481EF040FDA2
:102CD0001F4CA06008B900F0FBFC1B4A0021243205
:102CE0001C481EF035FDE06008B900F0F1FC164A02
:102CF0000021483218481EF02BFD206108B900F071
:102D0000E7FC114A00216C3214481EF021FD60617D
:102D100008B900F0DDFC0C4A0021903210481EF08A
:102D200017FDA06108B900F0D3FC074A0021B432B6
:102D30000C481EF00DFDE061002803D1BDE81040F5
:102D400000F0C6BC10BD0000F8660208AD1E000809
:102D5000240000208981000895730008715D000837
:102D6000015E0008156B000810B5074A00210748EE
:102D70001EF0EEFC06490028486003D1BDE8104073
:102D800000F0A6BC10BD0000D4660208B55D0008C6
:102D90002400002010B50022114601201EF044FC42
:102DA000104C206208B900F093FC0022114601206B
:102DB0001EF03AFC606208B900F08AFC00201EF0A8
:102DC0007CFBA06208B900F083FC002202210A20EB
:102DD0001EF0B2FAE062002803D1BDE8104000F016
:102DE00077BC10BD24000020014800F03BBF00006C
:102DF000B8C1012001681823CAB2103AB2FBF3F23D
:102E0000054B6FF30901032A9B5CC36500D9091DBB
:102E10008165084670470000B466020810B5014697
:102E200000208B698A6A4FF0C07453B1B3F5005F1C
:102E300015D072B1012A0CD0022A0AD0032A09D176
:102E400004E01AB1012A06D0022A03D1C96AC901D5
:102E500000D5012010BDC96AA142FAD010BD002AD8
:102E6000F7D0012AF2D0022AF3D0032AF3D010BD02
:102E700030B50468256825F4802525600468636002
:102E80008368402B036803D099600068C26030BD3E
:102E90009A600068C16030BD10B5A8211648FDF7E2
:102EA00035FD15482C21A830FDF730FD124868216A
:102EB000D430FDF72BFD10480F2210A1AC30FDF7E8
:102EC0004CFD0D480F220FA1C030FDF746FD0A480A
:102ED0000F220EA13030FDF740FD07480F220EA152
:102EE0004830FDF73AFD04480F22BDE810400CA120
:102EF0005830FDF732BD0000240601204F4E4C49EA
:102F00004E45000076312E302E3200005343414EA4
:102F10004E494E470000000053544F50000000003F
:102F20004F4E5F47524944007047000010B513F000
:102F300029F913F06FF90C4C60600C4812F092FE06
:102F40000146002260681BF0F2FF6068FFF7DAFAC2
:102F50006068FFF73BFB6068FFF794F86068FFF775
:102F600079FD0020207010BD58000020F5F5F50017
:102F700010B50F4C2178884219D0214620708A68FC
:102F800058B1012813D10121104618F051FBE06817
:102F9000BDE81040012118F03DBF0121104618F096
:102FA00039FFE068BDE81040012118F041BB10BDB9
:102FB0005800002030B5044680684649464D8BB025
:102FC000884201DA45A109E023F0FCFACDE90001CD
:102FD00043A2202102A8FDF751FA02A9686917F05F
:102FE000B5FD94F8293043B13FA2202102A8FDF796
:102FF00045FA02A9A86917F0A9FD206823F0E2FAB2
:10300000CDE9000136A2202102A8FDF737FA02A976
:10301000E86917F09BFD606823F0D4FACDE9000160
:1030200034A2202102A8FDF729FA02A9286A17F084
:103030008DFDE06823F0C6FACDE9000128A2202129
:1030400002A8FDF71BFA02A9686A17F07FFDA069C4
:1030500023F0B8FACDE9000126A2202102A8FDF74D
:103060000DFA02A9A86A17F071FD206A23F0AAFAE6
:10307000CDE900011AA2202102A8FDF7FFF902A95B
:10308000E86A17F063FD606A23F09CFACDE900015D
:1030900013A2202102A8FDF7F1F902A9286B17F06D
:1030A00055FD04F12A0315A2202102A8FDF7E6F937
:1030B00002A9686B17F04AFD94F83A0008B113486A
:1030C00000E0134812F0CEFD0146A86B17F005FF93
:1030D0000BB030BDCDCCCC3D580000202D2D0000D4
:1030E000252E3166000000002564252520E6958800
:1030F000E78E8700252E326600000000E98086E515
:103100008F98E599A83A20257300000050AF4C0035
:103110009E9E9E0000B58FB090ED010A0F228DEDAE
:10312000000A90ED020A8DED010A90ED030A8DED83
:10313000020A90ED050A8DED030A90ED060A8DED69
:10314000040A90ED070A8DED050A90ED080A8DED51
:10315000060A90ED040A8DED070A90ED0A0A8DED3E
:10316000080A90ED0B0A8DED090A90ED100ABCEEED
:10317000C00A10EE101A8DF8281090ED110ABCEE5E
:10318000C00A10EE101A8DF8291000F148010DF157
:103190002A00FDF7E2FB00208DF83900062208A185
:1031A0000948FDF7C7FA40B15FF000008DF83A001A
:1031B0006846FFF7FFFE0FB000BD0120F6E70000F4
:1031C0004F4E4C494E450000D006012010B56420FA
:1031D00000F03AF816F0DCFF164A4FF4F053A2F56F
:1031E0007051A1F11C0012F0E1FE134812F0EEFE46
:1031F0001148F02101804FF4A07141800F494161D5
:1032000000F17001C16012F00BFF0B48503016F056
:10321000B1FE09480121503001700949416016F0A2
:10322000BDFE084864213F22C0E90012816054219C
:10323000C16010BD24CA0020988D0020A15E000846
:10324000117D0008C4C00120054B642800D808B1D6
:10325000012200E000220121184600F0B4BF000066
:103260000004024070B5134E002406F114053470BA
:103270004FF480612846FDF727FBA5F80044A5F828
:103280000244A5F804440C48448004700B48012211
:103290000168091D02F098FC42F2107108A000F0CC
:1032A000A7F910B10120307070BD022030700020ED
:1032B00070BD00007C870020B8C00120B001002054
:1032C000524541445900000002480078012800D0CE
:1032D000002070477C8700203EB50C00054603D0D7
:1032E00015B1B4F5807F01D900203EBD18A00221A0
:1032F0000068019001A800F025F98DF80040200A2F
:103300008DF801000221684600F01CF9214628468C
:1033100000F018F9002131220FE000BF15F8010B71
:10332000414000200B0602D582EA410100E049003D
:10333000401CC0B2C9B20828F4D3641EA4B2EDD2B6
:103340008DF80810012102A800F0FCF801203EBD14
:10335000AA55000070B5504892B04FF0FF31006898
:103360001EF07AF81DF094FF4FF47A71B0FBF1F083
:103370004A4C0090002594ED010A49A110EE100A74
:10338000019094ED020A10EE100A029094ED030AE7
:1033900010EE100A039094ED040A10EE100A049047
:1033A00094ED050A10EE100A059094ED060A10EE51
:1033B000100A069094ED070A10EE100A079094ED9B
:1033C000080A10EE100A089094ED090A10EE100A8F
:1033D000099094ED0A0A10EE100A0A9094ED0B0A77
:1033E00010EE100A0B9094ED100A10EE100A0C90DB
:1033F00094ED110A10EE100A0D9094ED1E0A10EED5
:10340000100A0E9094ED1F0A10EE100A0F9094ED22
:10341000200A10EE100A109004F148000646FDF74D
:10342000C7FA28B11FA13046FDF7C2FA10B102E079
:10343000012500E0022519481CA130300646FDF7A1
:10344000B7FA28B11CA13046FDF7B2FA18B104E072
:1034500045F0040501E045F00805104818A1683062
:10346000FDF7A6FA08B945F010050C4816A158302A
:10347000FDF79EFA08B945F02005D4F8840045EA26
:1034800000201190044800681EF070F8482168463A
:10349000FFF722FF12B070BD4C000020240601206F
:1034A00052554E004641554C540000005452414381
:1034B0004B494E47000000004C4F434B4544000031
:1034C00053594E43454400004F46465F47524944D6
:1034D000000000001FB5154A1278012A02D0002012
:1034E00004B010BDAA228DF8002055248DF80140AB
:1034F000062401228DF8024000248DF804208DF866
:1035000003408DF80500CDF806100A216B462246CF
:1035100004201C5C401C6240C0B28842F9D35A545B
:103520006846491C00F00EF80120D9E77C8700208E
:1035300010B5032102A000F005F8012010BD000025
:1035400048420A0010B50C000CD000280AD00A46E8
:1035500001464FF47A73044802F068FB034881681F
:103560002144816010BD0000B00100207C87002054
:10357000F0B41B49884231D101684968CAB219497F
:10358000B1F804340124B3F5806F20D2B1F80054AF
:103590004A55B1F800345B1CC3F30903A1F80034A9
:1035A000B1F804345B1CA1F804340F4900264B88A1
:1035B000B3F5FF7F07D84B880C4DEF185B1C4B8091
:1035C0003A704B88EE540A2A01D10C704C70016895
:1035D000F0BC01220248091D02F0F6BAF0BC7047A7
:1035E000B001002090870020B8C00120968B0020F9
:1035F0002DE9F043ADF5017D0D4681461DF048FEF5
:103600000446002652E02D4A6B46B2F804C4B2F8D4
:103610000214002040F2FF170BE000BF12F80180F7
:10362000491CC1F30901B8F10A0F00F1010005D0EE
:1036300080B2604537D2B842F0DB34E081B200207E
:1036400019E0B2F804C41F18BCF1000F11D0B2F891
:1036500002C412F80CC087F800C0B2F802747F1CD4
:10366000C7F3090CA2F802C4B2F804747F1EA2F8D2
:103670000474401C80B28842E3D35E5499B1494639
:103680001846FDF702F820B101200DF5017DBDE8D7
:10369000F0830BA16846FCF7F8FF60B90AA1684601
:1036A000FCF7F3FF38B90A201DF0E3FD1DF0F0FD33
:1036B000001BA842A7D30020E7E700009087002066
:1036C0004552524F520000004641494C0000000054
:1036D00072B6FEE710B515F0FFFA0469002C0CD0A5
:1036E000204619F056F828B100212046BDE81040C8
:1036F0001BF0ECBA42F2D171F7E710BD30B5B3F56B
:10370000804F05D06FF0704140F82210002030BD8E
:103710008C690B688D6823434C688989240144EACD
:103720000524234343EA014150F82230014C234051
:103730001943E9E70000F0CF10B50A6850F82230CD
:1037400023F0010340F822308C68082C23D000239A
:103750004A682243CC681C430B6922431A434B69D5
:103760000E4C1A43CB691A430B6A1A434B6A1A432D
:103770008B6A1A43CB6A1A430B6B1A438B69134348
:10378000CA6B09681A4350F82130A343134340F829
:103790002130002010BD4023DAE700007FFF0F003A
:1037A00030B5D1E9003443EA04138C688D892402D2
:1037B00044EA054423430C8A074D00EB820005EBE5
:1037C000045423430C7D6D0105EB04648969234394
:1037D0000B434360002030BD0000F0FF78B50024AB
:1037E000009490F83C20012A19D0012280F83C2056
:1037F0000A6807230568092A13D9EE680A3A02EB1A
:10380000420293409E43EE600B788A680A3B03EBCA
:1038100043039A400368DD682A43DA6010E002201F
:1038200078BD2E6902EB420293409E432E610B78D5
:103830008A6803EB43039A4003681D692A431A61AF
:103840004A681F23072A13D205686E6B521E02EBCB
:10385000820293409E436E630B790A885B1E92B28C
:1038600003EB83039A4003685D6B2A435A6327E0A6
:1038700005680D2A12D22E6BD21F02EB82029340F2
:103880009E432E630B790A88DB1F92B203EB8303FE
:103890009A4003681D6B2A431A6311E0EE6A0D3AE1
:1038A00002EB820293409E43EE620B790A880D3B45
:1038B00092B203EB83039A400368DD6A2A43DA621B
:1038C000164B0568144A9D4206D10D68122D03D18E
:1038D000556845F48005556005689D4218D10B6810
:1038E000102B01D0112B13D1536843F40003536004
:1038F000096810290CD10A490A4A0968B1FBF2F19A
:1039000001EB8101490000E0491E00910029FBD133
:1039100080F83C40002078BD002301400020014099
:1039200014C0012040420F00074910B5884209D158
:10393000FEF7A6F805480068002803D0BDE810404F
:103940001DF0D8BE10BD000070C101204400002051
:103950000249884201D1FEF7B5B8704770C1012015
:10396000704770B504004FF0000503D0206C0026AE
:1039700010B107E0012070BD204600F01DF866641C
:1039800084F83C60206CC00610D4206C20F4885071
:1039900040F0020020642046FEF7D4F96664206CF3
:1039A00020F0020040F00100206400E0012584F8CE
:1039B0003C60284670BD000070B586B006461421F4
:1039C0006846FCF7A3FF1E493068884235D11D4880
:1039D0000025016841F480710160006800F4807086
:1039E000059018481438016841F001010160006831
:1039F000694600F0010005907F2000900320CDE98A
:103A00000105114800F0DAFA114C1048C4E900052C
:103A10000015A560C4E90350400060618000A0610A
:103A20004011E0614002C4E90805204600F0EAF9CF
:103A300008B1FFF74DFEB463A66306B070BD000089
:103A4000002001404438024000000240106402405F
:103A5000B8C10120F8B50E4600210446009190F847
:103A60003C0013460A46012807D0012084F83C0098
:103A700020688568ED0702D011E00220F8BD856856
:103A800045F0010585604048404D0068B0FBF5F009
:103A900000EB400000E0401E00900028FBD12068B1
:103AA0008568ED0503D5856825F4807585602068F7
:103AB0008568ED075DD0226C40F20165AA4342F4AF
:103AC000807222644068400505D5206C20F40050C7
:103AD00040F480502064206CC00404D5606C20F059
:103AE0000600606400E0616484F83C10A16B294822
:103AF000274DC863A16B28480864A16B2748C86498
:103B000021686FF0220008602068416841F0806100
:103B100041602068816841F480718160216832468B
:103B20004C31A06B00F0D8F9024668681C49C00609
:103B3000206806D0884224D1816811F0405F13D0FC
:103B40001FE08842F8D0174B984203D1D1F80433D4
:103B5000DB06F1D0144B984213D1D1F8041301F0D5
:103B60001F011029E8D30CE0816841F08041816099
:103B700007E0206C40F010002064606C40F0010011
:103B800060641046F8BD000014C0012040420F00E0
:103B900000230140F1190008751A00085F1A000897
:103BA0000020014000210140002201402DE9F041A8
:103BB0000446876D00F00CFB064694F8350000259E
:103BC000022806D08020606584F834500120BDE8CA
:103BD000F0812068016821F01601016020684169C8
:103BE00021F080014161206C08B9A06C20B12068EF
:103BF000016821F0080101602068016821F00101DD
:103C000001600CE000F0E4FA801B052807D92020B1
:103C10006065032084F8350084F83450D7E72068C5
:103C20000068C007EED194F85C103F208840B8606F
:103C3000012084F8350084F834500020C7E790F85C
:103C40003510022903D080214165012070470521EC
:103C500080F835100068016821F001010160002042
:103C6000704700002DE9F84304464FF00009CDF8F5
:103C7000009063484FF41651A56D0068B0FBF1F752
:103C80002E6894F85C10082000FA01F131420FD040
:103C900021680A6852070BD50A6822F004020A60FC
:103CA00094F85C108840A860606D40F00100606589
:103CB00094F85C104FF0010808FA01F0304208D087
:103CC00021684969090604D5A860606D40F00200CA
:103CD000606594F85C1004208840304208D0216868
:103CE0000968890704D5A860606D40F0040060652C
:103CF00094F85C1010208840304218D02168096880
:103D0000090714D5A86020680168490304D5006834
:103D1000000308D5A16C07E00168C90503D4016858
:103D200021F008010160216C09B12046884794F810
:103D30005C1020208840304231D021680968C906D3
:103D40002DD5A86094F8350005282068016806D0B4
:103D5000490347D5006800031DD4616C1CE021F0C5
:103D6000160101602068416921F080014161206CE9
:103D700008B9A06C20B12068016821F00801016039
:103D800094F85C103F208840A86084F8358084F85F
:103D90003490216D1FE0E16B09B120468847606DCA
:103DA00000282BD0606DC00714D0052084F83500A2
:103DB0002068016821F0010101600098401C00901A
:103DC000B84203D820680068C007F6D184F835806F
:103DD00084F83490E16C002910D001B02046BDE891
:103DE000F04308470168C905D5D4016821F01001E6
:103DF000016084F8358084F83490CCE7BDE8F8831E
:103E000014C001202DE9F041044600F0E1F9064616
:103E10005CB1022084F83500002584F83450206815
:103E2000016821F0010101600DE00120BDE8F08191
:103E300000F0CEF9801B052805D9202060650320FD
:103E400084F83500F2E720680068C007F0D12268E6
:103E5000116820480140D4E901031843D4E903362E
:103E60003343184363691843A3691843E36918434C
:103E7000236A18430843616A042903D1D4E90B1368
:103E800019430843106020684069666A20F0070102
:103E900030460E43012704280CD1A06A0643E06A8D
:103EA00040B12046FEF7BAFF20B14020606584F89B
:103EB0003570BAE7206846612046FEF79BFF94F80C
:103EC0005C203F2191408160656584F83570002059
:103ED000ACE700003F8010F02DE9F0410446866D0C
:103EE00090F83400002501280DD0012084F834001A
:103EF00094F835700020012F07D084F83400022593
:103F00002846BDE8F0810220FBE7022784F83570DF
:103F100060652046FEF7ACFF94F85C103F208840B7
:103F2000B0602068016841F016010160206C20B18A
:103F30002068016841F0080101602068016841F0D3
:103F400001010160DCE70000F0B587B0142168468C
:103F5000FCF7DCFC15480168002924D1012101602F
:103F600013480024016841F0010101600068022546
:103F700000F0010005904FF68070CDE9000502AA1F
:103F800003260C2782E8D00069460A4800F016F89C
:103F90004CF6B370CDE9000502AA694682E8D0006C
:103FA000054800F00BF807B0F0BD000000C001208C
:103FB0003838024000100240000C02402DE9F84F52
:103FC000DFF8BCA10022012503264FF00F090AF1FA
:103FD000040BAAF1040E00BF0B6805FA02F423409B
:103FE000A34270D10F7907F00307012F01D0022FF0
:103FF00016D187684FEA420806FA08FC27EA0C0740
:10400000D1F80CC00CFA08FC4CEA070CC0F808C048
:104010004768A7430C79C4F3001494403C434460C0
:104020000C79E443A4070AD0C4684FEA420C06FAAC
:104030000CF7BC438F6807FA0CF72743C7600C796D
:1040400004F00304022C12D1D40800EB840CDCF839
:1040500020405707FF0E09FA07F824EA0804D1F8B0
:10406000108008FA07F848EA0408CCF820800468B1
:104070004FEA420C06FA0CF7BC430F7907F003072E
:1040800007FA0CF7274307604C6814F4403F70D0E0
:104090003C4C276847F480472760246822F00307D8
:1040A00004F480440094384C07EB040CDCF8084816
:1040B00097074FEA177809FA08F7BC43334FB8421D
:1040C00002D1002724E054E0314FB84201D101274A
:1040D0001EE0304FB84201D1022719E02E4FB842FE
:1040E00001D1032714E02D4FB84201D104270FE07E
:1040F0002B4FB84201D105270AE02A4FB84201D11F
:10410000062705E0284FB84201D1072700E008271D
:1041100007FA08F72743CCF80878DAF80040574642
:10412000D1F804C09C435FEACC2C00D51C433C6012
:10413000DBF800405F46D1F804C09C435FEA8C2C5A
:1041400000D51C433C60DEF800407746D1F804C03F
:104150009C435FEA8C3C00D51C433C60084F083F01
:104160003C68D1F804C09C435FEACC3C00D51C43BA
:104170003C60521C102AFFF42FAFBDE8F88F0000FE
:10418000083C014044380240003001400000024039
:104190000004024000080240000C024000100240EF
:1041A0000014024000180240001C02400069084050
:1041B00000D001207047426921EA02030A4043EA25
:1041C0000241816170470AB1816170470904FBE7D0
:1041D000014880687047000008C0012070B50400E5
:1041E00013D021684CF6CC400860216845F2555048
:1041F0000860D4E9000141602168A0688860FFF789
:10420000E7FF054641F601060DE0012070BD00BF45
:10421000FFF7DEFF401BB04205D92068C068800769
:1042200001D0032070BD2068C0688007F0D12168EC
:104230004AF6AA200860002070BD00684AF6AA214C
:104240000160002070470000024881680278114434
:104250008160704708C001200B4810B5016841F427
:1042600000710160016841F480610160016841F4FE
:1042700080710160032000F09FF80F2000F006F825
:1042800000F050F8002010BD003C024030B505465B
:104290001F4887B00024016841F0100101600068E8
:1042A00006A900F01000009001A800F031F9049870
:1042B000A8B100F04DF940001649174AB0FBF1F1E2
:1042C0001648491E026040F2E732C0E90324C0E903
:1042D0000114846100F006FE040003D015E000F034
:1042E00037F9E9E70D4800F02BFE04000DD1362028
:1042F00000F034F8102D07D200222946362000F0B5
:104300003BF80748056000E0012407B0204630BDB7
:104310004038024040420F000010004040020020A0
:104320000CC001200C4882B0016841F4804101605A
:10433000006800F4804000900748001F016841F0C9
:10434000805101600068002200F0805000900F2131
:10435000901E02B000F010B844380240002809DB7B
:1043600000F01F02012191404009800000F1E0208F
:10437000C0F8001170470000F0B40E4B1B680C46EB
:10438000C3F30223C3F10705042D00D90425191D29
:10439000072901D2002300E0DB1E012606FA05F101
:1043A000491E214099409E40761E16403143F0BC84
:1043B00003F091BF0CED00E0064900F00702086829
:1043C0004FF6FF03184040EA0220034A10430860FA
:1043D000704700000CED00E00000FA052DE9F04701
:1043E0000E46050065D0DFF81481D8F80000F7B25A
:1043F00000F00700B04207D288F80070D8F800003B
:1044000000F00700B04254D128683D4C810712D516
:10441000400703D5206840F4E0502060287800076A
:1044200003D5206840F4604020602068A96820F02F
:10443000F000084320602878C0072DD03049686814
:104440000839012812D0022813D0032811D0096896
:10445000890700292DDA216821F003010143216039
:10446000FFF7B6FE814641F2883A0EE009688903FB
:10447000EFE709688901ECE7FFF7AAFEA0EB090165
:10448000514502D90320BDE8F0872068696800F033
:104490000C00B0EB810FEFD1D8F80010404601F0CE
:1044A0000701B14207D90770006800F00700B04269
:1044B00001D00120E7E72878400705D52068E968A2
:1044C00020F4E050084320602878000706D52068D3
:1044D000296920F4604040EAC100206000F058F8EB
:1044E0002168084AC1F30311515CC84006490860BD
:1044F00006480068FFF7CAFE0020C4E7003C0240FF
:1045000008380240BC66020814C001200CC001201B
:104510000F2202600C4A136803F003034360136820
:1045200003F0F0038360136803F4E053C360126880
:104530004FF4E05303EAD20202610448006800F03D
:10454000070008607047000008380240003C024045
:104550000448054900680968044AC1F38221515C96
:10456000C840704714C0012008380240CC660208D9
:104570000448054900680968044AC1F34231515CA6
:10458000C840704714C0012008380240CC660208B9
:10459000154810B5006810F00C02144813D04110F3
:1045A000042A0FD0082A0ED10F4C241F226823683A
:1045B00002F03F025B0207D52068C0F38810A0FB21
:1045C000010106E0084610BD2168C1F38811A1FB76
:1045D00000010023FBF7DAFE2168C1F30141491C09
:1045E0004900B0FBF1F010BD083802400024F4008F
:1045F0002DE9F84F04006ED02078DFF84C93C00707
:10460000A9F104054AD009F104000168C1F3810150
:10461000012908D00068C0F3810002280AD1D9F826
:104620000000400206D52868800337D5606800285E
:10463000E1D033E06068B0F5803F10D0B0F5A02F36
:10464000286810D020F480302860286820F480206A
:1046500028606068A8B1FFF7BBFD06460DE028683A
:1046600040F48030F4E740F480202860F7E700BF92
:10467000FFF7AEFD801B642873D828688003F7D548
:104680000CE0FFF7A5FD064605E000BFFFF7A0FD23
:10469000801B6428F0D828688003F7D42078DFF8DE
:1046A000AC8280074FF0000A3ED5A748001D016884
:1046B00011F00C0F08D00068C0F3810002280BD164
:1046C000D9F80000400207D42868800716D5E068B2
:1046D000012800D112E033E1E068B8B10120C8F848
:1046E0000000FFF775FD064605E000BFFFF770FD0F
:1046F000801B0228C0D828688007F7D52868216960
:1047000020F0F80040EAC10028600DE0C8F800A0E1
:10471000FFF75EFD064604E0FFF75AFD801B022806
:104720001FD828688007F7D42078000722D5864F45
:1047300087486169703771B101210160FFF748FD59
:10474000064604E0FFF744FD801B022809D83868BC
:104750008007F7D50EE0C0F800A0FFF739FD064648
:1047600005E082E0FFF734FD801B02287DD8386821
:104770008007F7D42078400768D5DFF8CCB1002750
:104780000BF13C0BDBF80000C0000BD4DBF8001091
:1047900041F08051CBF80010DBF80000012700F059
:1047A000805000906B4E3068C00510D4306840F4E3
:1047B00080703060FFF70CFD009005E0FFF708FD0A
:1047C0000099401A022850D83068C005F6D55E4ED0
:1047D000A0686C3601280FD00528306810D020F072
:1047E00001003060306820F004003060A068B8B18B
:1047F000FFF7EEFC00900FE0306840F00100F4E7B6
:1048000040F004003060F7E7FFF7E2FC0099411A3E
:1048100041F28830814266D830688007F4D50EE0D6
:10482000FFF7D6FC009007E0FFF7D2FC0099411A91
:1048300041F28830814256D830688007F4D42FB1D5
:10484000DBF8001021F08051CBF80010A069C8B34C
:104850003D49091D0968C1F3810102294AD0022896
:10486000504607D0C8F8600000E03CE0FFF7B0FC1D
:1048700004463BE04746C8F86000FFF7A9FC06463F
:1048800005E000BFFFF7A4FC801B02282BD8286896
:104890008001F7D4D4E907010843A16A2E4A4908E8
:1048A00002EB0141626A41EA8211084394F82C103C
:1048B00040EA0161C9F8001001203866FFF788FC62
:1048C000044606E03EE000BFFFF782FC001B022822
:1048D00009D828688001F7D534E000BFFFF778FCDD
:1048E000001B022802D90320BDE8F88F2868800148
:1048F000F4D427E00128F7D0D9F80000E26900F4E9
:10490000800191421CD1226A00F03F01914217D1EF
:1049100047F6C071626A0140B1EB821F10D1A26AF2
:104920004FF0FF3300F4403103EB5202B1EB024F82
:1049300006D194F82C1000F07060B0EB016F01D03C
:104940000120D1E70020CFE70438024000004742B1
:10495000800E4742007000400000FFFF70B5040069
:1049600009D0606A002540B125616561A56294F8AF
:10497000510040B10CE0012070BD6068B0F5827F4D
:10498000F4D0E561F2E784F85050204600F044F896
:10499000022084F851002068016821F04001016084
:1049A000A088218900F4827001F404410843A189A0
:1049B00001F400610843217C01F002010843217DDC
:1049C00001F001010843218B01F400710843217FAC
:1049D00001F03801084394F8201001F080010843E9
:1049E000218D01F40051084321680860A069042169
:1049F00001EA104094F8241001F0100108432168E6
:104A000048602068C16921F40061C16165650120C9
:104A100084F85100002070BD10B586B00446142102
:104A20006846FBF773FF14492068884221D1134878
:104A30000021026842F480420260006800F4804075
:104A400005900E481038026842F0020202600068C9
:104A500000F0020005904FF4704000900220CDE974
:104A60000101032003900520049069460448FFF7E4
:104A7000A5FA06B010BD00000038004040380240E2
:104A8000000402402DE9FF4F81B01D4693460446C5
:104A90004FF001090E9EFFF79BFB074694F851006B
:104AA0006168012806D0B1F5827F3CD1A168C9BBFD
:104AB000042838D10298002871D0BBF1000FFBD038
:104AC000002DF9D094F8500001282CD04FF0010AA5
:104AD00084F850A094F85100042802D0052084F8EE
:104AE00051004FF00008C4F85480C4F838B0E5878E
:104AF000A58702992163E586A586C4F84080C4F89D
:104B0000448020680168490603D4016841F04001EF
:104B10000160E068B0F5006F606808D0F0B3012D67
:104B200049D081E0FFE7022005B0BDE8F08F08B171
:104B3000012D39D1206B21680088C860206B801C52
:104B40002063E08E401EE0862EE0206881688907A1
:104B50000FD5E18E69B1B9F1010F0AD1216B098836
:104B6000C160206B801C2063E08E401EE0864FF009
:104B7000000920688168C9070CD0E18F51B1C06875
:104B8000A16B0880A06B801CA063E08F401EE087B3
:104B90004FF00109FFF71CFBC01B01E00BE067E0D1
:104BA000B04201D3701C50D1E08E0028CDD1E08FEF
:104BB0000028CAD13EE0206B216800780873206B82
:104BC000401C2063E08E401EE0862DE02068816856
:104BD00089070FD5E18E69B1B9F1010F0AD1216BB7
:104BE00009780173206B401C2063E08E401EE08634
:104BF0004FF0000920688168C9070CD0E18F51B1DE
:104C0000C068A16B0870A06B401CA063E08F401EC1
:104C1000E0874FF00109FFF7DBFAC01BB04202D377
:104C2000701C01D011E086B1E08E0028CED1E08F5B
:104C30000028CBD13A463146204602F0C7FB50B19E
:104C40002020606584F8508012E084F851A084F838
:104C50005080032068E7A06818B92068C1688068A0
:104C6000009084F851A084F85080606D0028F1D045
:104C7000012059E770B515460E46040003D094F89C
:104C8000490010B107E0012070BD002084F8480001
:104C9000204600F01DF804F108012068FEF74CFDE5
:104CA0003146A2682068FEF77BFDD4E9010229465F
:104CB000236BFEF723FD2168A06851F8202042F005
:104CC000010241F82020012084F84900002070BD35
:104CD000FFF73AB97047704710B590F83C20012AA9
:104CE00022D0012280F83C20CA688C6822F44072ED
:104CF00022434C6822F4806222430C6822F4006252
:104D000022430C6922F4805222434C6922F400525F
:104D10002243C969002322F480420A4301684A649D
:104D200080F83C30002010BD022010BD70B590F816
:104D30003C20012A32D0012480F83C40022280F835
:104D40003D2003685A689D6822F070060A68324365
:104D50005A60134B02689A4214D0B2F1804F11D0BE
:104D6000104B9A420ED0104B9A420BD00F4B9A42E6
:104D700008D00F4B9A4205D00E4B9A4202D00E4BF0
:104D80009A4204D1496825F080031943916080F864
:104D90003D40002180F83C10084670BD022070BDE7
:104DA000000001400004004000080040000C0040EA
:104DB00000040140004001400018004010B50446C6
:104DC000022249B104290ED0082913D094F84500D5
:104DD000012816D0012010BD94F842000128F9D115
:104DE00084F842200FE094F843000128F2D184F8BF
:104DF000432008E094F844000128EBD184F84420D3
:104E000001E084F845200422206802F056FE206864
:104E1000416C41F40041416411492068884214D03A
:104E2000B0F1804F11D00F4988420ED00E49884210
:104E30000BD00E49884208D00D49884205D00D4953
:104E4000884202D00C49884204D1816801F00701F0
:104E5000062903D0016841F001010160002010BD66
:104E6000000001400004004000080040000C004029
:104E700000040140004001400018004070B50446A5
:104E80000D460068002202F018FE2068036A41F215
:104E900011110B4240F2444206D1036A134203D17E
:104EA000436C23F4004343642068036A0B4206D139
:104EB000016A114203D1016821F001010160012062
:104EC0003DB1042D08D0082D09D084F845000020FC
:104ED00070BD84F84200FAE784F84300F7E784F8ED
:104EE0004400F4E710B5040003D094F83D0010B17D
:104EF00007E0012010BD002084F83C00204600F0AF
:104F00001EF8022084F83D00211D206802F060FD9B
:104F1000012084F8460084F83E0084F83F0084F8BD
:104F2000400084F8410084F8420084F8430084F88B
:104F3000440084F8450084F83D00002010BD70470F
:104F400090F83D10012901D001207047022180F81E
:104F50003D100168CA6842F00102CA600068114948
:104F6000884214D0B0F1804F11D00F4988420ED042
:104F70000E4988420BD00E49884208D00D4988421C
:104F800005D00D49884202D00C49884204D181687D
:104F900001F00701062903D0016841F00101016019
:104FA000002070470000014000040040000800405D
:104FB000000C004000040140004001400018004087
:104FC000054910B5884206D1002100F0C1FBBDE8BB
:104FD000104001F067BE10BDB0C201202DE9F041C4
:104FE000054690F83C0000260C46012810D0012010
:104FF00085F83C0072B1042A1CD0082A2CD00C2A57
:1050000050D00126002085F83C003046BDE8F081F4
:105010000220FBE7D4E90012E368286802F01CFED6
:105020002868816921F00C01816128688169A26882
:1050300011430FE0D4E90012E368286802F04CFE47
:105040002868816921F44061816128688169A268CA
:1050500041EA02218161D5E72868D4E9002C277B49
:10506000036A016A21F480710162C16923F420633B
:1050700021F0030141EA0C0121F0F00C39074FF453
:1050800020674CEA116107EA02221A43C1610262F9
:105090002868C16921F00C01C1612868C169A26852
:1050A00011432BE02868D4E90021E768036AD0F8AF
:1050B00020C02CF4805CC0F820C0D0F81CC023F4C1
:1050C00020432CF4407C4CEA012121F4704C4FF633
:1050D000FF7101EA07314FF4204741EA0C0107EA6A
:1050E00002321A43C16102622868C16921F4406139
:1050F000C1612868C169A26841EA0221C16181E7F2
:1051000010B5040003D094F83D0010B107E0012071
:1051100010BD002084F83C00204600F01FF802205B
:1051200084F83D00211D206802F052FC012084F823
:10513000460084F83E0084F83F0084F8400084F87C
:10514000410084F8420084F8430084F8440084F865
:10515000450084F83D00002010BD000010B586B069
:10516000044614216846FBF7D1FB2068B0F1804F5C
:1051700020D111480021026842F00102026000685B
:1051800000F0010005900C481038026842F001025E
:105190000260006800F0010005904FF400400090AC
:1051A0000220CDE901010120CDE903106946034841
:1051B000FEF704FF06B010BD403802400000024078
:1051C00030B50446002551B104290DD0082910D06E
:1051D00094F8410094F84520012811D10EE094F88C
:1051E0003E0094F84220F7E794F83F0094F84320FB
:1051F000F2E794F8400094F84420EDE7012A01D04A
:10520000012030BD022059B1042912D0082919D03B
:1052100084F8410084F845000C2944D0012540E081
:1052200084F83E0084F842002068C26842F002021E
:1052300010E084F83F0084F843002068C26842F020
:10524000040207E084F8400084F844002068C26843
:1052500042F00802C2600122206802F021FC1449D9
:105260002068884214D0B0F1804F11D01149884293
:105270000ED0114988420BD01049884208D01049FD
:10528000884205D00F49884202D00F49884204D194
:10529000816801F00701062903D0016841F001018E
:1052A0000160284630BD2068C26842F01002D1E794
:1052B000000001400004004000080040000C0040D5
:1052C0000004014000400140001800402DE9F04179
:1052D00004460068C66805694FF00007A90713D5A2
:1052E000B10711D5F91E016101202077206880697E
:1052F0008007204602D0FFF763FE04E000F0C0F80C
:10530000204600F071F92777680716D5700714D585
:1053100021686FF00400086102202077206880690E
:1053200010F4407F204602D0FFF74AFE04E000F070
:10533000A7F8204600F058F92777280715D5300739
:1053400013D521686FF008000861042020772068D9
:10535000C0698007204602D0FFF732FE04E000F06B
:105360008FF8204600F040F92777E80616D5F006BA
:1053700014D521686FF0100008610820207720689C
:10538000C06910F4407F204602D0FFF719FE04E008
:1053900000F076F8204600F027F92777E80708D0D4
:1053A000F00706D021686FF001000861204600F088
:1053B000BFF9280608D5300606D521686FF08000B1
:1053C00008612046FFF786FC680608D5700606D5FA
:1053D00021686FF040000861204600F0CEF9A80671
:1053E0000AD5B00608D521686FF020000861204674
:1053F000BDE8F041FFF76FBCBDE8F08110B586B0A5
:10540000044614216846FBF781FA2368174C0021F3
:1054100017480222A34211D1036843F0010303603D
:10542000006800F001000590D0010090CDE9012155
:105430000120CDE9031069460E4813E00E4CA3424B
:1054400012D1036843F004030360006800F0040015
:105450000590C0200090CDE901210320CDE9031083
:1054600069460648FEF7AAFD06B010BD00000140DF
:1054700030380240000002400004014000080240B1
:10548000704770B5044690F83C0000260D46012890
:105490000FD0012084F83C006AB1042A1DD0082AEC
:1054A0002FD00C2A3FD00126002084F83C00304643
:1054B00070BD022070BD206802F00CFB206881697D
:1054C00041F0080181612068816921F00401816156
:1054D000206881692A69114311E0206802F02AFBE3
:1054E0002068816941F4006181612068816921F44B
:1054F00080618161206881692A6941EA02218161B4
:10550000D2E7206802F04CFB2068C16941F0080135
:10551000C1612068C16921F00401C1612068C169CD
:105520002A69114311E0206802F06EFB2068C1690E
:1055300041F40061C1612068C16921F48061C161E9
:105540002068C1692A6941EA0221C161ACE710B54E
:10555000040003D094F83D0010B107E0012010BD15
:10556000002084F83C00204600F01EF8022084F859
:105570003D00211D206802F02BFA012084F846002E
:1055800084F83E0084F83F0084F8400084F841002D
:1055900084F8420084F8430084F8440084F845000D
:1055A00084F83D00002010BD08B50C4A01680C4885
:1055B000914207D1016841F001010160006800F0EB
:1055C000010009E0074A914207D1016841F0020158
:1055D0000160006800F00200009008BD000001407A
:1055E00044380240000401407047000010B50446F2
:1055F000022249B104290ED0082913D094F84100A1
:10560000012816D0012010BD94F83E000128F9D1E0
:1056100084F83E200FE094F83F000128F2D184F88E
:105620003F2008E094F840000128EBD184F84020A6
:1056300001E084F841200122206802F031FA164985
:105640002068164A884201D0904203D1436C43F44B
:10565000004343642068884213D0B0F1804F10D0DB
:105660000F4988420DD00F4988420AD00E4988421E
:1056700007D0904205D00D49884202D00C4988429B
:1056800004D1816801F00701062903D0016841F0C7
:1056900001010160002010BD000001400004014034
:1056A0000004004000080040000C004000400140A1
:1056B0000018004030B504460D460068002202F094
:1056C000EFF9194B41F2111120688A10984202D06B
:1056D000164B984209D1036A0B4206D1036A134262
:1056E00003D1436C23F4004343642068036A0B42F4
:1056F00006D1016A114203D1016821F00101016064
:1057000001203DB1042D08D0082D09D084F84100B6
:10571000002030BD84F83E00FAE784F83F00F7E748
:1057200084F84000F4E7000000000140000401405C
:10573000054A0168914201D1FEF786BD03498842BE
:1057400001D101F04BBF704700100040F8C20120AA
:105750000246002041B1042909D008290AD00C29A9
:1057600001D11068006C70471068406B704710687A
:10577000806B70471068C06B70477047704710B5FA
:1057800004460068406994F84110C0F3C010212914
:1057900011D180B12068143050E8001F21F0800141
:1057A00040E80012002AF5D1A06B08B1FEF7FEF91F
:1057B000204602F098FB2068406994F84210C0F33C
:1057C0008010222911D180B12068143050E8001FC8
:1057D00021F0400140E80012002AF5D1E06B08B149
:1057E000FEF7E4F9204602F057FB002010BD704799
:1057F000F8B5016804460868CA684B6910F00F0FD5
:105800004FF0000559D003F0010602F490773743BA
:1058100065D0C10705D0D10503D5616C41F0010108
:105820006164410705D5D90703D0616C41F00201DD
:105830006164810705D5D90703D0616C41F004018B
:105840006164010707D502F02001314303D0616C88
:1058500041F008016164616C00293AD0800604D5EA
:10586000900602D5204602F04CFB20684069616C2E
:10587000C0F38010090700D460B3204602F00CFB8F
:1058800020684069400621D52068143050E8001F88
:1058900021F0400140E80012002AF5D1E06BA8B1E8
:1058A00072490165E06BFEF7CAF9002811D0E06B80
:1058B000016D01B0BDE8F040084783060FD593069F
:1058C0000DD52046BDE8F84002F01BBB2046FFF78F
:1058D0008EFFF8BD2046FFF78AFF6564F8BD266B92
:1058E0002023012E7ED1C6067CD5D6067AD508683F
:1058F0004868009048694FF0020640064DD5E26BBB
:10590000106840684FF480770004000C3AD0A18DF5
:10591000814237D9E085D069B8422DD020680C305B
:1059200050E8001F21F4807140E80012002AF5D1F0
:105930002068143050E8001F21F0010140E80012F7
:10594000002AF5D12068143050E8001F21F04001F2
:1059500040E80012002AF5D184F84230256320681F
:105960000C3050E8001F21F0100140E80012002A1E
:10597000F5D1E06BFEF71AF96663A08DE18D401A50
:1059800081B206E0A18D8142A8D1D069B842A5D1EB
:1059900066632046FFF7F2FEF8BDA08DE18D401A48
:1059A00081B2E08D0028F7D00029F5D020680C30B6
:1059B00050E8002F22F4907240E80027002FF5D124
:1059C0002068143050E8002F22F0010240E8002740
:1059D000002FF5D184F84230256320680C3050E860
:1059E000002F00E006E022F0100240E80023002B28
:1059F000F3D1CDE705062BD5150629D594F841003E
:105A00002128C9D1A068B0F5805F01D12069B0B16B
:105A1000206A411C2162216800784860E08C401EA9
:105A20000004000CE084B7D12068C16821F0800137
:105A3000C1602068C16841F04001C160F8BD206AC2
:105A40000088C0F308004860206A801C2062E5E7F7
:105A50004006F3D55006F1D5CA68204622F0400230
:105A6000CA6084F8413000F073F9F8BDF57D000894
:105A700070B5040004D094F84100002510B106E090
:105A8000012070BD84F84050204600F023F8242007
:105A900084F841002068C16821F40051C1602046AB
:105AA00002F090FA2068016921F4904101612068B8
:105AB000416921F02A0141612068C16841F4005127
:105AC000C1606564202084F8410084F84200656369
:105AD000002070BDF0B587B0044614216846FAF77F
